{
  "contractName": "HelloWorldOfTests",
  "abi": [
    {
      "inputs": [
        {
          "internalType": "string",
          "name": "_message",
          "type": "string"
        }
      ],
      "stateMutability": "nonpayable",
      "type": "constructor"
    },
    {
      "inputs": [],
      "name": "message",
      "outputs": [
        {
          "internalType": "string",
          "name": "",
          "type": "string"
        }
      ],
      "stateMutability": "view",
      "type": "function",
      "constant": true
    },
    {
      "inputs": [
        {
          "internalType": "uint256",
          "name": "",
          "type": "uint256"
        },
        {
          "internalType": "uint256",
          "name": "",
          "type": "uint256"
        }
      ],
      "name": "occupied",
      "outputs": [
        {
          "internalType": "bool",
          "name": "",
          "type": "bool"
        }
      ],
      "stateMutability": "view",
      "type": "function",
      "constant": true
    },
    {
      "inputs": [],
      "name": "owner",
      "outputs": [
        {
          "internalType": "address",
          "name": "",
          "type": "address"
        }
      ],
      "stateMutability": "view",
      "type": "function",
      "constant": true
    },
    {
      "inputs": [],
      "name": "helloWorld",
      "outputs": [
        {
          "internalType": "string",
          "name": "",
          "type": "string"
        }
      ],
      "stateMutability": "view",
      "type": "function",
      "constant": true
    },
    {
      "inputs": [
        {
          "internalType": "string",
          "name": "_message",
          "type": "string"
        }
      ],
      "name": "setMessage",
      "outputs": [],
      "stateMutability": "nonpayable",
      "type": "function"
    },
    {
      "inputs": [
        {
          "internalType": "string",
          "name": "_message",
          "type": "string"
        }
      ],
      "name": "expensiveSetMessage",
      "outputs": [],
      "stateMutability": "payable",
      "type": "function",
      "payable": true
    }
  ],
  "bytecode": "0x60806040523480156200001157600080fd5b5060405162000b2a38038062000b2a8339818101604052810190620000379190620002e5565b80600090805190602001906200004f92919062000098565b5033600160006101000a81548173ffffffffffffffffffffffffffffffffffffffff021916908373ffffffffffffffffffffffffffffffffffffffff160217905550506200039b565b828054620000a69062000365565b90600052602060002090601f016020900481019282620000ca576000855562000116565b82601f10620000e557805160ff191683800117855562000116565b8280016001018555821562000116579182015b8281111562000115578251825591602001919060010190620000f8565b5b50905062000125919062000129565b5090565b5b80821115620001445760008160009055506001016200012a565b5090565b6000604051905090565b600080fd5b600080fd5b600080fd5b600080fd5b6000601f19601f8301169050919050565b7f4e487b7100000000000000000000000000000000000000000000000000000000600052604160045260246000fd5b620001b18262000166565b810181811067ffffffffffffffff82111715620001d357620001d262000177565b5b80604052505050565b6000620001e862000148565b9050620001f68282620001a6565b919050565b600067ffffffffffffffff82111562000219576200021862000177565b5b620002248262000166565b9050602081019050919050565b60005b838110156200025157808201518184015260208101905062000234565b8381111562000261576000848401525b50505050565b60006200027e6200027884620001fb565b620001dc565b9050828152602081018484840111156200029d576200029c62000161565b5b620002aa84828562000231565b509392505050565b600082601f830112620002ca57620002c96200015c565b5b8151620002dc84826020860162000267565b91505092915050565b600060208284031215620002fe57620002fd62000152565b5b600082015167ffffffffffffffff8111156200031f576200031e62000157565b5b6200032d84828501620002b2565b91505092915050565b7f4e487b7100000000000000000000000000000000000000000000000000000000600052602260045260246000fd5b600060028204905060018216806200037e57607f821691505b6020821081141562000395576200039462000336565b5b50919050565b61077f80620003ab6000396000f3fe6080604052600436106100555760003560e01c8063368b87721461005a57806380d1adbf146100835780638da5cb5b146100c0578063bc5c8351146100eb578063c605f76c14610107578063e21f37ce14610132575b600080fd5b34801561006657600080fd5b50610081600480360381019061007c919061046c565b61015d565b005b34801561008f57600080fd5b506100aa60048036038101906100a591906104ef565b610173565b6040516100b7919061054a565b60405180910390f35b3480156100cc57600080fd5b506100d56101b4565b6040516100e291906105a6565b60405180910390f35b6101056004803603810190610100919061046c565b6101da565b005b34801561011357600080fd5b5061011c61023a565b604051610129919061065a565b60405180910390f35b34801561013e57600080fd5b506101476102cc565b604051610154919061065a565b60405180910390f35b81816000919061016e92919061035a565b505050565b6002826103e8811061018457600080fd5b60200201816103e8811061019757600080fd5b60209182820401919006915091509054906101000a900460ff1681565b600160009054906101000a900473ffffffffffffffffffffffffffffffffffffffff1681565b670de0b6b3a76400003411610224576040517f08c379a000000000000000000000000000000000000000000000000000000000815260040161021b906106c8565b60405180910390fd5b81816000919061023592919061035a565b505050565b60606000805461024990610717565b80601f016020809104026020016040519081016040528092919081815260200182805461027590610717565b80156102c25780601f10610297576101008083540402835291602001916102c2565b820191906000526020600020905b8154815290600101906020018083116102a557829003601f168201915b5050505050905090565b600080546102d990610717565b80601f016020809104026020016040519081016040528092919081815260200182805461030590610717565b80156103525780601f1061032757610100808354040283529160200191610352565b820191906000526020600020905b81548152906001019060200180831161033557829003601f168201915b505050505081565b82805461036690610717565b90600052602060002090601f01602090048101928261038857600085556103cf565b82601f106103a157803560ff19168380011785556103cf565b828001600101855582156103cf579182015b828111156103ce5782358255916020019190600101906103b3565b5b5090506103dc91906103e0565b5090565b5b808211156103f95760008160009055506001016103e1565b5090565b600080fd5b600080fd5b600080fd5b600080fd5b600080fd5b60008083601f84011261042c5761042b610407565b5b8235905067ffffffffffffffff8111156104495761044861040c565b5b60208301915083600182028301111561046557610464610411565b5b9250929050565b60008060208385031215610483576104826103fd565b5b600083013567ffffffffffffffff8111156104a1576104a0610402565b5b6104ad85828601610416565b92509250509250929050565b6000819050919050565b6104cc816104b9565b81146104d757600080fd5b50565b6000813590506104e9816104c3565b92915050565b60008060408385031215610506576105056103fd565b5b6000610514858286016104da565b9250506020610525858286016104da565b9150509250929050565b60008115159050919050565b6105448161052f565b82525050565b600060208201905061055f600083018461053b565b92915050565b600073ffffffffffffffffffffffffffffffffffffffff82169050919050565b600061059082610565565b9050919050565b6105a081610585565b82525050565b60006020820190506105bb6000830184610597565b92915050565b600081519050919050565b600082825260208201905092915050565b60005b838110156105fb5780820151818401526020810190506105e0565b8381111561060a576000848401525b50505050565b6000601f19601f8301169050919050565b600061062c826105c1565b61063681856105cc565b93506106468185602086016105dd565b61064f81610610565b840191505092915050565b600060208201905081810360008301526106748184610621565b905092915050565b7f4e6f7420656e6f756768204554482073656e742c206d696e206f662031000000600082015250565b60006106b2601d836105cc565b91506106bd8261067c565b602082019050919050565b600060208201905081810360008301526106e1816106a5565b9050919050565b7f4e487b7100000000000000000000000000000000000000000000000000000000600052602260045260246000fd5b6000600282049050600182168061072f57607f821691505b60208210811415610743576107426106e8565b5b5091905056fea2646970667358221220502944934e6dd7579f64d683040c8fee553b01391db250d91a4bcbe97bc691dd64736f6c63430008090033",
  "immutableReferences": {},
  "source": "// SPDX-License-Identifier: MIT\r\npragma solidity ^0.8.9;\r\n\r\ncontract HelloWorldOfTests {\r\n\tstring public message;\r\n\taddress public owner;\r\n\tbool[1000][1000] public occupied;\r\n\r\n\tconstructor(string memory _message) {\r\n\t\tmessage = _message;\r\n\t\towner = msg.sender;\r\n\t}\r\n\r\n\tfunction helloWorld() external view returns (string memory) {\r\n\t\treturn message;\r\n\t}\r\n\r\n\tfunction setMessage(string calldata _message) external {\r\n\t\tmessage = _message;\r\n\t}\r\n\r\n\tfunction expensiveSetMessage(string calldata _message) external payable {\r\n\t\trequire(msg.value > 1 ether, \"Not enough ETH sent, min of 1\");\r\n\t\tmessage = _message;\r\n\t}\r\n}",
  "sourcePath": "D:\\GitProjs\\MillionNFT\\contracts\\HelloWorldTests.sol",
  "compiler": {
    "name": "solc",
    "version": "0.8.9+commit.e5eed63a.Emscripten.clang"
  },
  "schemaVersion": "3.4.3",
  "updatedAt": "2021-10-06T13:06:34.187Z",
  "networkType": "ethereum",
  "devdoc": {
    "kind": "dev",
    "methods": {},
    "version": 1
  },
  "userdoc": {
    "kind": "user",
    "methods": {},
    "version": 1
  }
}