{
  "contractName": "DependantContract",
  "abi": [
    {
      "inputs": [
        {
          "internalType": "string",
          "name": "_message",
          "type": "string"
        },
        {
          "internalType": "address",
          "name": "_testsCon",
          "type": "address"
        }
      ],
      "stateMutability": "nonpayable",
      "type": "constructor"
    },
    {
      "inputs": [],
      "name": "testsCon",
      "outputs": [
        {
          "internalType": "address",
          "name": "",
          "type": "address"
        }
      ],
      "stateMutability": "view",
      "type": "function"
    }
  ],
  "bytecode": "0x608060405234801561001057600080fd5b506040516104d43803806104d483398181016040528101906100329190610310565b8160009080519060200190610048929190610091565b5080600160006101000a81548173ffffffffffffffffffffffffffffffffffffffff021916908373ffffffffffffffffffffffffffffffffffffffff16021790555050506103cd565b82805461009d9061039b565b90600052602060002090601f0160209004810192826100bf5760008555610106565b82601f106100d857805160ff1916838001178555610106565b82800160010185558215610106579182015b828111156101055782518255916020019190600101906100ea565b5b5090506101139190610117565b5090565b5b80821115610130576000816000905550600101610118565b5090565b6000604051905090565b600080fd5b600080fd5b600080fd5b600080fd5b6000601f19601f8301169050919050565b7f4e487b7100000000000000000000000000000000000000000000000000000000600052604160045260246000fd5b61019b82610152565b810181811067ffffffffffffffff821117156101ba576101b9610163565b5b80604052505050565b60006101cd610134565b90506101d98282610192565b919050565b600067ffffffffffffffff8211156101f9576101f8610163565b5b61020282610152565b9050602081019050919050565b60005b8381101561022d578082015181840152602081019050610212565b8381111561023c576000848401525b50505050565b6000610255610250846101de565b6101c3565b9050828152602081018484840111156102715761027061014d565b5b61027c84828561020f565b509392505050565b600082601f83011261029957610298610148565b5b81516102a9848260208601610242565b91505092915050565b600073ffffffffffffffffffffffffffffffffffffffff82169050919050565b60006102dd826102b2565b9050919050565b6102ed816102d2565b81146102f857600080fd5b50565b60008151905061030a816102e4565b92915050565b600080604083850312156103275761032661013e565b5b600083015167ffffffffffffffff81111561034557610344610143565b5b61035185828601610284565b9250506020610362858286016102fb565b9150509250929050565b7f4e487b7100000000000000000000000000000000000000000000000000000000600052602260045260246000fd5b600060028204905060018216806103b357607f821691505b602082108114156103c7576103c661036c565b5b50919050565b60f9806103db6000396000f3fe6080604052348015600f57600080fd5b506004361060285760003560e01c8063fcf6551d14602d575b600080fd5b60336047565b604051603e919060aa565b60405180910390f35b600160009054906101000a900473ffffffffffffffffffffffffffffffffffffffff1681565b600073ffffffffffffffffffffffffffffffffffffffff82169050919050565b6000609682606d565b9050919050565b60a481608d565b82525050565b600060208201905060bd6000830184609d565b9291505056fea2646970667358221220016d9f051e3fd354dcbc088da83f9aa5015d7730d93140358cca3afbc08ae06664736f6c63430008090033",
  "immutableReferences": {},
  "source": "// SPDX-License-Identifier: MIT\r\npragma solidity ^0.8.9;\r\n\r\ncontract DependantContract {\r\n\tstring message;\r\n\taddress public testsCon;\r\n\r\n\tconstructor(string memory _message, address _testsCon) {\r\n\t\tmessage = _message;\r\n\t\ttestsCon = _testsCon;\r\n\t}\r\n}\r\n",
  "sourcePath": "D:\\GitProjs\\RealPixestate\\contracts\\DependantContract.sol",
  "compiler": {
    "name": "solc",
    "version": "0.8.9+commit.e5eed63a.Emscripten.clang"
  },
  "schemaVersion": "3.4.3",
  "updatedAt": "2021-10-12T08:19:03.674Z",
  "networkType": "ethereum",
  "devdoc": {
    "kind": "dev",
    "methods": {},
    "version": 1
  },
  "userdoc": {
    "kind": "user",
    "methods": {},
    "version": 1
  }
}