{
  "contractName": "RealPixestate",
  "abi": [
    {
      "inputs": [],
      "stateMutability": "nonpayable",
      "type": "constructor"
    },
    {
      "anonymous": false,
      "inputs": [
        {
          "indexed": true,
          "internalType": "address",
          "name": "owner",
          "type": "address"
        },
        {
          "indexed": true,
          "internalType": "address",
          "name": "approved",
          "type": "address"
        },
        {
          "indexed": true,
          "internalType": "uint256",
          "name": "tokenId",
          "type": "uint256"
        }
      ],
      "name": "Approval",
      "type": "event"
    },
    {
      "anonymous": false,
      "inputs": [
        {
          "indexed": true,
          "internalType": "address",
          "name": "owner",
          "type": "address"
        },
        {
          "indexed": true,
          "internalType": "address",
          "name": "operator",
          "type": "address"
        },
        {
          "indexed": false,
          "internalType": "bool",
          "name": "approved",
          "type": "bool"
        }
      ],
      "name": "ApprovalForAll",
      "type": "event"
    },
    {
      "anonymous": false,
      "inputs": [
        {
          "indexed": true,
          "internalType": "address",
          "name": "previousOwner",
          "type": "address"
        },
        {
          "indexed": true,
          "internalType": "address",
          "name": "newOwner",
          "type": "address"
        }
      ],
      "name": "OwnershipTransferred",
      "type": "event"
    },
    {
      "anonymous": false,
      "inputs": [
        {
          "indexed": true,
          "internalType": "address",
          "name": "from",
          "type": "address"
        },
        {
          "indexed": true,
          "internalType": "address",
          "name": "to",
          "type": "address"
        },
        {
          "indexed": true,
          "internalType": "uint256",
          "name": "tokenId",
          "type": "uint256"
        }
      ],
      "name": "Transfer",
      "type": "event"
    },
    {
      "inputs": [
        {
          "internalType": "address",
          "name": "to",
          "type": "address"
        },
        {
          "internalType": "uint256",
          "name": "tokenId",
          "type": "uint256"
        }
      ],
      "name": "approve",
      "outputs": [],
      "stateMutability": "nonpayable",
      "type": "function"
    },
    {
      "inputs": [
        {
          "internalType": "address",
          "name": "owner",
          "type": "address"
        }
      ],
      "name": "balanceOf",
      "outputs": [
        {
          "internalType": "uint256",
          "name": "",
          "type": "uint256"
        }
      ],
      "stateMutability": "view",
      "type": "function",
      "constant": true
    },
    {
      "inputs": [
        {
          "internalType": "uint256",
          "name": "tokenId",
          "type": "uint256"
        }
      ],
      "name": "burn",
      "outputs": [],
      "stateMutability": "nonpayable",
      "type": "function"
    },
    {
      "inputs": [],
      "name": "dimensions",
      "outputs": [
        {
          "internalType": "uint256",
          "name": "",
          "type": "uint256"
        }
      ],
      "stateMutability": "view",
      "type": "function",
      "constant": true
    },
    {
      "inputs": [
        {
          "internalType": "uint256",
          "name": "tokenId",
          "type": "uint256"
        }
      ],
      "name": "getApproved",
      "outputs": [
        {
          "internalType": "address",
          "name": "",
          "type": "address"
        }
      ],
      "stateMutability": "view",
      "type": "function",
      "constant": true
    },
    {
      "inputs": [
        {
          "internalType": "address",
          "name": "owner",
          "type": "address"
        },
        {
          "internalType": "address",
          "name": "operator",
          "type": "address"
        }
      ],
      "name": "isApprovedForAll",
      "outputs": [
        {
          "internalType": "bool",
          "name": "",
          "type": "bool"
        }
      ],
      "stateMutability": "view",
      "type": "function",
      "constant": true
    },
    {
      "inputs": [],
      "name": "name",
      "outputs": [
        {
          "internalType": "string",
          "name": "",
          "type": "string"
        }
      ],
      "stateMutability": "view",
      "type": "function",
      "constant": true
    },
    {
      "inputs": [],
      "name": "owner",
      "outputs": [
        {
          "internalType": "address",
          "name": "",
          "type": "address"
        }
      ],
      "stateMutability": "view",
      "type": "function",
      "constant": true
    },
    {
      "inputs": [
        {
          "internalType": "uint256",
          "name": "tokenId",
          "type": "uint256"
        }
      ],
      "name": "ownerOf",
      "outputs": [
        {
          "internalType": "address",
          "name": "",
          "type": "address"
        }
      ],
      "stateMutability": "view",
      "type": "function",
      "constant": true
    },
    {
      "inputs": [],
      "name": "renounceOwnership",
      "outputs": [],
      "stateMutability": "nonpayable",
      "type": "function"
    },
    {
      "inputs": [
        {
          "internalType": "address",
          "name": "from",
          "type": "address"
        },
        {
          "internalType": "address",
          "name": "to",
          "type": "address"
        },
        {
          "internalType": "uint256",
          "name": "tokenId",
          "type": "uint256"
        }
      ],
      "name": "safeTransferFrom",
      "outputs": [],
      "stateMutability": "nonpayable",
      "type": "function"
    },
    {
      "inputs": [
        {
          "internalType": "address",
          "name": "from",
          "type": "address"
        },
        {
          "internalType": "address",
          "name": "to",
          "type": "address"
        },
        {
          "internalType": "uint256",
          "name": "tokenId",
          "type": "uint256"
        },
        {
          "internalType": "bytes",
          "name": "_data",
          "type": "bytes"
        }
      ],
      "name": "safeTransferFrom",
      "outputs": [],
      "stateMutability": "nonpayable",
      "type": "function"
    },
    {
      "inputs": [
        {
          "internalType": "address",
          "name": "operator",
          "type": "address"
        },
        {
          "internalType": "bool",
          "name": "approved",
          "type": "bool"
        }
      ],
      "name": "setApprovalForAll",
      "outputs": [],
      "stateMutability": "nonpayable",
      "type": "function"
    },
    {
      "inputs": [],
      "name": "spatialDimensions",
      "outputs": [
        {
          "internalType": "uint256",
          "name": "",
          "type": "uint256"
        }
      ],
      "stateMutability": "view",
      "type": "function",
      "constant": true
    },
    {
      "inputs": [],
      "name": "spatialDimensionsSqr",
      "outputs": [
        {
          "internalType": "uint256",
          "name": "",
          "type": "uint256"
        }
      ],
      "stateMutability": "view",
      "type": "function",
      "constant": true
    },
    {
      "inputs": [
        {
          "internalType": "uint256",
          "name": "",
          "type": "uint256"
        },
        {
          "internalType": "uint256",
          "name": "",
          "type": "uint256"
        }
      ],
      "name": "spatialMap",
      "outputs": [
        {
          "internalType": "uint256",
          "name": "",
          "type": "uint256"
        }
      ],
      "stateMutability": "view",
      "type": "function",
      "constant": true
    },
    {
      "inputs": [
        {
          "internalType": "bytes4",
          "name": "interfaceId",
          "type": "bytes4"
        }
      ],
      "name": "supportsInterface",
      "outputs": [
        {
          "internalType": "bool",
          "name": "",
          "type": "bool"
        }
      ],
      "stateMutability": "view",
      "type": "function",
      "constant": true
    },
    {
      "inputs": [],
      "name": "symbol",
      "outputs": [
        {
          "internalType": "string",
          "name": "",
          "type": "string"
        }
      ],
      "stateMutability": "view",
      "type": "function",
      "constant": true
    },
    {
      "inputs": [
        {
          "internalType": "address",
          "name": "from",
          "type": "address"
        },
        {
          "internalType": "address",
          "name": "to",
          "type": "address"
        },
        {
          "internalType": "uint256",
          "name": "tokenId",
          "type": "uint256"
        }
      ],
      "name": "transferFrom",
      "outputs": [],
      "stateMutability": "nonpayable",
      "type": "function"
    },
    {
      "inputs": [
        {
          "internalType": "address",
          "name": "newOwner",
          "type": "address"
        }
      ],
      "name": "transferOwnership",
      "outputs": [],
      "stateMutability": "nonpayable",
      "type": "function"
    },
    {
      "inputs": [
        {
          "internalType": "uint256",
          "name": "",
          "type": "uint256"
        }
      ],
      "name": "uris",
      "outputs": [
        {
          "internalType": "string",
          "name": "",
          "type": "string"
        }
      ],
      "stateMutability": "view",
      "type": "function",
      "constant": true
    },
    {
      "inputs": [
        {
          "internalType": "uint256",
          "name": "tokenId",
          "type": "uint256"
        }
      ],
      "name": "tokenURI",
      "outputs": [
        {
          "internalType": "string",
          "name": "",
          "type": "string"
        }
      ],
      "stateMutability": "view",
      "type": "function",
      "constant": true
    },
    {
      "inputs": [
        {
          "internalType": "uint256",
          "name": "tokenId",
          "type": "uint256"
        },
        {
          "internalType": "string",
          "name": "uri",
          "type": "string"
        }
      ],
      "name": "setUri",
      "outputs": [],
      "stateMutability": "nonpayable",
      "type": "function"
    },
    {
      "inputs": [
        {
          "internalType": "uint256",
          "name": "sArea",
          "type": "uint256"
        }
      ],
      "name": "getMap",
      "outputs": [
        {
          "internalType": "uint256[]",
          "name": "",
          "type": "uint256[]"
        }
      ],
      "stateMutability": "view",
      "type": "function",
      "constant": true
    },
    {
      "inputs": [
        {
          "internalType": "uint256",
          "name": "tokenId",
          "type": "uint256"
        }
      ],
      "name": "getSpatialHashes",
      "outputs": [
        {
          "internalType": "uint256[]",
          "name": "",
          "type": "uint256[]"
        }
      ],
      "stateMutability": "pure",
      "type": "function",
      "constant": true
    },
    {
      "inputs": [
        {
          "internalType": "uint256",
          "name": "tokenId",
          "type": "uint256"
        }
      ],
      "name": "breakTokenId",
      "outputs": [
        {
          "components": [
            {
              "internalType": "uint256",
              "name": "top",
              "type": "uint256"
            },
            {
              "internalType": "uint256",
              "name": "left",
              "type": "uint256"
            },
            {
              "internalType": "uint256",
              "name": "bottom",
              "type": "uint256"
            },
            {
              "internalType": "uint256",
              "name": "right",
              "type": "uint256"
            }
          ],
          "internalType": "struct RealPixestate.Section",
          "name": "",
          "type": "tuple"
        }
      ],
      "stateMutability": "pure",
      "type": "function",
      "constant": true
    },
    {
      "inputs": [
        {
          "internalType": "uint256",
          "name": "tokenId",
          "type": "uint256"
        },
        {
          "internalType": "uint256[]",
          "name": "newTokens",
          "type": "uint256[]"
        }
      ],
      "name": "breakTokens",
      "outputs": [],
      "stateMutability": "nonpayable",
      "type": "function"
    },
    {
      "inputs": [
        {
          "internalType": "uint256",
          "name": "tokenId",
          "type": "uint256"
        },
        {
          "internalType": "uint256[]",
          "name": "oldTokens",
          "type": "uint256[]"
        }
      ],
      "name": "mergeTokens",
      "outputs": [],
      "stateMutability": "nonpayable",
      "type": "function"
    },
    {
      "inputs": [
        {
          "internalType": "uint256",
          "name": "js",
          "type": "uint256"
        }
      ],
      "name": "testMint",
      "outputs": [],
      "stateMutability": "nonpayable",
      "type": "function"
    },
    {
      "inputs": [],
      "name": "testMintGas",
      "outputs": [
        {
          "internalType": "string",
          "name": "",
          "type": "string"
        }
      ],
      "stateMutability": "nonpayable",
      "type": "function"
    }
  ],
  "bytecode": "0x60806040523480156200001157600080fd5b506040518060400160405280600e81526020017f5265616c205069786573746174650000000000000000000000000000000000008152506040518060400160405280600381526020017f5250580000000000000000000000000000000000000000000000000000000000815250816000908051906020019062000096929190620001a6565b508060019080519060200190620000af929190620001a6565b505050620000d2620000c6620000d860201b60201c565b620000e060201b60201c565b620002bb565b600033905090565b6000600660009054906101000a900473ffffffffffffffffffffffffffffffffffffffff16905081600660006101000a81548173ffffffffffffffffffffffffffffffffffffffff021916908373ffffffffffffffffffffffffffffffffffffffff1602179055508173ffffffffffffffffffffffffffffffffffffffff168173ffffffffffffffffffffffffffffffffffffffff167f8be0079c531659141344cd1fd0a4f28419497f9722a3daafe3b4186f6b6457e060405160405180910390a35050565b828054620001b49062000285565b90600052602060002090601f016020900481019282620001d8576000855562000224565b82601f10620001f357805160ff191683800117855562000224565b8280016001018555821562000224579182015b828111156200022357825182559160200191906001019062000206565b5b50905062000233919062000237565b5090565b5b808211156200025257600081600090555060010162000238565b5090565b7f4e487b7100000000000000000000000000000000000000000000000000000000600052602260045260246000fd5b600060028204905060018216806200029e57607f821691505b60208210811415620002b557620002b462000256565b5b50919050565b61461980620002cb6000396000f3fe608060405234801561001057600080fd5b50600436106101da5760003560e01c80638da5cb5b11610104578063c87b56dd116100a2578063e985e9c511610071578063e985e9c514610565578063f2fde38b14610595578063f9d52257146105b1578063f9ef365d146105cf576101da565b8063c87b56dd146104c9578063caa6763c146104f9578063d573c7f414610517578063e5e9e9ec14610535576101da565b8063a22cb465116100de578063a22cb46514610459578063aae1abde14610475578063b88d4fde14610491578063c82710f3146104ad576101da565b80638da5cb5b146103ff578063944a13fc1461041d57806395d89b411461043b576101da565b80632f3f94ae1161017c5780636961aac41161014b5780636961aac41461037957806370a08231146103a9578063715018a6146103d9578063782f08ae146103e3576101da565b80632f3f94ae146102f557806342842e0e1461031157806342966c681461032d5780636352211e14610349576101da565b8063081812fc116101b8578063081812fc1461025d578063095ea7b31461028d5780631253c546146102a957806323b872dd146102d9576101da565b806301ffc9a7146101df578063025799f01461020f57806306fdde031461023f575b600080fd5b6101f960048036038101906101f49190612d29565b6105ff565b6040516102069190612d71565b60405180910390f35b61022960048036038101906102249190612dc2565b6106e1565b6040516102369190612ead565b60405180910390f35b61024761074c565b6040516102549190612f68565b60405180910390f35b61027760048036038101906102729190612dc2565b6107de565b6040516102849190612fcb565b60405180910390f35b6102a760048036038101906102a29190613012565b610863565b005b6102c360048036038101906102be9190612dc2565b61097b565b6040516102d09190612f68565b60405180910390f35b6102f360048036038101906102ee9190613052565b610a1b565b005b61030f600480360381019061030a9190612dc2565b610a7b565b005b61032b60048036038101906103269190613052565b610bd3565b005b61034760048036038101906103429190612dc2565b610bf3565b005b610363600480360381019061035e9190612dc2565b610c4f565b6040516103709190612fcb565b60405180910390f35b610393600480360381019061038e9190612dc2565b610d01565b6040516103a09190612ead565b60405180910390f35b6103c360048036038101906103be91906130a5565b610edf565b6040516103d091906130e1565b60405180910390f35b6103e1610f97565b005b6103fd60048036038101906103f89190613231565b61101f565b005b6104076110c8565b6040516104149190612fcb565b60405180910390f35b6104256110f2565b6040516104329190612f68565b60405180910390f35b61044361112f565b6040516104509190612f68565b60405180910390f35b610473600480360381019061046e91906132b9565b6111c1565b005b61048f600480360381019061048a91906133c1565b611342565b005b6104ab60048036038101906104a691906134be565b611433565b005b6104c760048036038101906104c291906133c1565b611495565b005b6104e360048036038101906104de9190612dc2565b6115c0565b6040516104f09190612f68565b60405180910390f35b6105016116ad565b60405161050e91906130e1565b60405180910390f35b61051f6116bd565b60405161052c91906130e1565b60405180910390f35b61054f600480360381019061054a9190613541565b6116c3565b60405161055c91906130e1565b60405180910390f35b61057f600480360381019061057a9190613581565b6116f4565b60405161058c9190612d71565b60405180910390f35b6105af60048036038101906105aa91906130a5565b611788565b005b6105b9611880565b6040516105c691906130e1565b60405180910390f35b6105e960048036038101906105e49190612dc2565b611885565b6040516105f69190613616565b60405180910390f35b60007f80ac58cd000000000000000000000000000000000000000000000000000000007bffffffffffffffffffffffffffffffffffffffffffffffffffffffff1916827bffffffffffffffffffffffffffffffffffffffffffffffffffffffff191614806106ca57507f5b5e139f000000000000000000000000000000000000000000000000000000007bffffffffffffffffffffffffffffffffffffffffffffffffffffffff1916827bffffffffffffffffffffffffffffffffffffffffffffffffffffffff1916145b806106da57506106d9826119f0565b5b9050919050565b60606007600083815260200190815260200160002080548060200260200160405190810160405280929190818152602001828054801561074057602002820191906000526020600020905b81548152602001906001019080831161072c575b50505050509050919050565b60606000805461075b90613660565b80601f016020809104026020016040519081016040528092919081815260200182805461078790613660565b80156107d45780601f106107a9576101008083540402835291602001916107d4565b820191906000526020600020905b8154815290600101906020018083116107b757829003601f168201915b5050505050905090565b60006107e982611a5a565b610828576040517f08c379a000000000000000000000000000000000000000000000000000000000815260040161081f90613704565b60405180910390fd5b6004600083815260200190815260200160002060009054906101000a900473ffffffffffffffffffffffffffffffffffffffff169050919050565b600061086e82610c4f565b90508073ffffffffffffffffffffffffffffffffffffffff168373ffffffffffffffffffffffffffffffffffffffff1614156108df576040517f08c379a00000000000000000000000000000000000000000000000000000000081526004016108d690613796565b60405180910390fd5b8073ffffffffffffffffffffffffffffffffffffffff166108fe611ac6565b73ffffffffffffffffffffffffffffffffffffffff16148061092d575061092c81610927611ac6565b6116f4565b5b61096c576040517f08c379a000000000000000000000000000000000000000000000000000000000815260040161096390613828565b60405180910390fd5b6109768383611ace565b505050565b6008602052806000526040600020600091509050805461099a90613660565b80601f01602080910402602001604051908101604052809291908181526020018280546109c690613660565b8015610a135780601f106109e857610100808354040283529160200191610a13565b820191906000526020600020905b8154815290600101906020018083116109f657829003601f168201915b505050505081565b610a2c610a26611ac6565b82611b87565b610a6b576040517f08c379a0000000000000000000000000000000000000000000000000000000008152600401610a62906138ba565b60405180910390fd5b610a76838383611c65565b505050565b60005b6103e8811015610bcf5760005b6103e8811015610bbb57600060018483610aa59190613909565b610aaf919061395f565b6103e860018686610ac09190613909565b610aca919061395f565b610ad49190613993565b610ade9190613909565b6103e880846103e887610af19190613993565b610afb9190613909565b610b059190613993565b610b0f9190613993565b610b199190613909565b90506000610b2682610d01565b905060005b8151811015610b9b5760076000838381518110610b4b57610b4a6139ed565b5b602002602001015181526020019081526020016000208390806001815401808255809150506001900390600052602060002001600090919091909150558080610b9390613a1c565b915050610b2b565b50610ba63383611ec1565b50508281610bb49190613909565b9050610a8b565b508181610bc89190613909565b9050610a7e565b5050565b610bee83838360405180602001604052806000815250611433565b505050565b610c04610bfe611ac6565b82611b87565b610c43576040517f08c379a0000000000000000000000000000000000000000000000000000000008152600401610c3a90613ad7565b60405180910390fd5b610c4c81611edf565b50565b6000806002600084815260200190815260200160002060009054906101000a900473ffffffffffffffffffffffffffffffffffffffff169050600073ffffffffffffffffffffffffffffffffffffffff168173ffffffffffffffffffffffffffffffffffffffff161415610cf8576040517f08c379a0000000000000000000000000000000000000000000000000000000008152600401610cef90613b69565b60405180910390fd5b80915050919050565b60606000610d0e83611885565b905060006040518060800160405280600a80610d2a9190613993565b8460000151610d399190613bb8565b8152602001600a80610d4b9190613993565b8460200151610d5a9190613bb8565b8152602001600a80610d6c9190613993565b8460400151610d7b9190613bb8565b8152602001600a80610d8d9190613993565b8460600151610d9c9190613bb8565b81525090506000600182602001518360600151610db9919061395f565b610dc39190613909565b600183600001518460400151610dd9919061395f565b610de39190613909565b610ded9190613993565b905060008167ffffffffffffffff811115610e0b57610e0a613106565b5b604051908082528060200260200182016040528015610e395781602001602082028036833780820191505090505b509050600080846000015190505b84604001518111610ed1576000856020015190505b85606001518111610ebd5780600a83610e759190613993565b610e7f9190613909565b848480610e8b90613a1c565b955081518110610e9e57610e9d6139ed565b5b6020026020010181815250508080610eb590613a1c565b915050610e5c565b508080610ec990613a1c565b915050610e47565b508195505050505050919050565b60008073ffffffffffffffffffffffffffffffffffffffff168273ffffffffffffffffffffffffffffffffffffffff161415610f50576040517f08c379a0000000000000000000000000000000000000000000000000000000008152600401610f4790613c5b565b60405180910390fd5b600360008373ffffffffffffffffffffffffffffffffffffffff1673ffffffffffffffffffffffffffffffffffffffff168152602001908152602001600020549050919050565b610f9f611ac6565b73ffffffffffffffffffffffffffffffffffffffff16610fbd6110c8565b73ffffffffffffffffffffffffffffffffffffffff1614611013576040517f08c379a000000000000000000000000000000000000000000000000000000000815260040161100a90613cc7565b60405180910390fd5b61101d6000611ff0565b565b611027611ac6565b73ffffffffffffffffffffffffffffffffffffffff1661104683610c4f565b73ffffffffffffffffffffffffffffffffffffffff161461109c576040517f08c379a000000000000000000000000000000000000000000000000000000000815260040161109390613d33565b60405180910390fd5b806008600084815260200190815260200160002090805190602001906110c3929190612bf2565b505050565b6000600660009054906101000a900473ffffffffffffffffffffffffffffffffffffffff16905090565b60606040518060400160405280600281526020017f7364000000000000000000000000000000000000000000000000000000000000815250905090565b60606001805461113e90613660565b80601f016020809104026020016040519081016040528092919081815260200182805461116a90613660565b80156111b75780601f1061118c576101008083540402835291602001916111b7565b820191906000526020600020905b81548152906001019060200180831161119a57829003601f168201915b5050505050905090565b6111c9611ac6565b73ffffffffffffffffffffffffffffffffffffffff168273ffffffffffffffffffffffffffffffffffffffff161415611237576040517f08c379a000000000000000000000000000000000000000000000000000000000815260040161122e90613d9f565b60405180910390fd5b8060056000611244611ac6565b73ffffffffffffffffffffffffffffffffffffffff1673ffffffffffffffffffffffffffffffffffffffff16815260200190815260200160002060008473ffffffffffffffffffffffffffffffffffffffff1673ffffffffffffffffffffffffffffffffffffffff16815260200190815260200160002060006101000a81548160ff0219169083151502179055508173ffffffffffffffffffffffffffffffffffffffff166112f1611ac6565b73ffffffffffffffffffffffffffffffffffffffff167f17307eab39ab6107e8899845ad3d59bd9653f200f220920489ca2b5937696c31836040516113369190612d71565b60405180910390a35050565b61135361134d611ac6565b83611b87565b611392576040517f08c379a000000000000000000000000000000000000000000000000000000000815260040161138990613e0b565b60405180910390fd5b61139c8282612241565b6113db576040517f08c379a00000000000000000000000000000000000000000000000000000000081526004016113d290613e77565b60405180910390fd5b6113e482612467565b60005b815181101561142e5761141b6113fb611ac6565b83838151811061140e5761140d6139ed565b5b6020026020010151611ec1565b808061142690613a1c565b9150506113e7565b505050565b61144461143e611ac6565b83611b87565b611483576040517f08c379a000000000000000000000000000000000000000000000000000000000815260040161147a906138ba565b60405180910390fd5b61148f8484848461261f565b50505050565b60005b815181101561151e576114cc6114ac611ac6565b8383815181106114bf576114be6139ed565b5b6020026020010151611b87565b61150b576040517f08c379a000000000000000000000000000000000000000000000000000000000815260040161150290613e0b565b60405180910390fd5b808061151690613a1c565b915050611498565b506115298282612241565b611568576040517f08c379a000000000000000000000000000000000000000000000000000000000815260040161155f90613ee3565b60405180910390fd5b60005b81518110156115aa5761159782828151811061158a576115896139ed565b5b6020026020010151612467565b80806115a290613a1c565b91505061156b565b506115bc6115b6611ac6565b83611ec1565b5050565b60606115cb82611a5a565b61160a576040517f08c379a000000000000000000000000000000000000000000000000000000000815260040161160190613f75565b60405180910390fd5b60086000838152602001908152602001600020805461162890613660565b80601f016020809104026020016040519081016040528092919081815260200182805461165490613660565b80156116a15780601f10611676576101008083540402835291602001916116a1565b820191906000526020600020905b81548152906001019060200180831161168457829003601f168201915b50505050509050919050565b600a806116ba9190613993565b81565b6103e881565b600760205281600052604060002081815481106116df57600080fd5b90600052602060002001600091509150505481565b6000600560008473ffffffffffffffffffffffffffffffffffffffff1673ffffffffffffffffffffffffffffffffffffffff16815260200190815260200160002060008373ffffffffffffffffffffffffffffffffffffffff1673ffffffffffffffffffffffffffffffffffffffff16815260200190815260200160002060009054906101000a900460ff16905092915050565b611790611ac6565b73ffffffffffffffffffffffffffffffffffffffff166117ae6110c8565b73ffffffffffffffffffffffffffffffffffffffff1614611804576040517f08c379a00000000000000000000000000000000000000000000000000000000081526004016117fb90613cc7565b60405180910390fd5b600073ffffffffffffffffffffffffffffffffffffffff168173ffffffffffffffffffffffffffffffffffffffff161415611874576040517f08c379a000000000000000000000000000000000000000000000000000000000815260040161186b90614007565b60405180910390fd5b61187d81611ff0565b50565b600a81565b61188d612c78565b60006103e88061189d9190613993565b9050600081846118ad9190613bb8565b9050600082856118bd9190614027565b905060006103e8836118cf9190613bb8565b905060006103e8846118e19190614027565b905060006103e8846118f39190613bb8565b905060006103e8856119059190614027565b90508184111580156119175750808311155b611956576040517f08c379a000000000000000000000000000000000000000000000000000000000815260040161194d906140a4565b60405180910390fd5b6103e88410801561196857506103e883105b801561197557506103e882105b801561198257506103e881105b6119c1576040517f08c379a00000000000000000000000000000000000000000000000000000000081526004016119b890614110565b60405180910390fd5b604051806080016040528085815260200184815260200183815260200182815250975050505050505050919050565b60007f01ffc9a7000000000000000000000000000000000000000000000000000000007bffffffffffffffffffffffffffffffffffffffffffffffffffffffff1916827bffffffffffffffffffffffffffffffffffffffffffffffffffffffff1916149050919050565b60008073ffffffffffffffffffffffffffffffffffffffff166002600084815260200190815260200160002060009054906101000a900473ffffffffffffffffffffffffffffffffffffffff1673ffffffffffffffffffffffffffffffffffffffff1614159050919050565b600033905090565b816004600083815260200190815260200160002060006101000a81548173ffffffffffffffffffffffffffffffffffffffff021916908373ffffffffffffffffffffffffffffffffffffffff160217905550808273ffffffffffffffffffffffffffffffffffffffff16611b4183610c4f565b73ffffffffffffffffffffffffffffffffffffffff167f8c5be1e5ebec7d5bd14f71427d1e84f3dd0314c0f7b2291e5b200ac8c7c3b92560405160405180910390a45050565b6000611b9282611a5a565b611bd1576040517f08c379a0000000000000000000000000000000000000000000000000000000008152600401611bc8906141a2565b60405180910390fd5b6000611bdc83610c4f565b90508073ffffffffffffffffffffffffffffffffffffffff168473ffffffffffffffffffffffffffffffffffffffff161480611c4b57508373ffffffffffffffffffffffffffffffffffffffff16611c33846107de565b73ffffffffffffffffffffffffffffffffffffffff16145b80611c5c5750611c5b81856116f4565b5b91505092915050565b8273ffffffffffffffffffffffffffffffffffffffff16611c8582610c4f565b73ffffffffffffffffffffffffffffffffffffffff1614611cdb576040517f08c379a0000000000000000000000000000000000000000000000000000000008152600401611cd290614234565b60405180910390fd5b600073ffffffffffffffffffffffffffffffffffffffff168273ffffffffffffffffffffffffffffffffffffffff161415611d4b576040517f08c379a0000000000000000000000000000000000000000000000000000000008152600401611d42906142c6565b60405180910390fd5b611d5683838361267b565b611d61600082611ace565b6001600360008573ffffffffffffffffffffffffffffffffffffffff1673ffffffffffffffffffffffffffffffffffffffff1681526020019081526020016000206000828254611db1919061395f565b925050819055506001600360008473ffffffffffffffffffffffffffffffffffffffff1673ffffffffffffffffffffffffffffffffffffffff1681526020019081526020016000206000828254611e089190613909565b92505081905550816002600083815260200190815260200160002060006101000a81548173ffffffffffffffffffffffffffffffffffffffff021916908373ffffffffffffffffffffffffffffffffffffffff160217905550808273ffffffffffffffffffffffffffffffffffffffff168473ffffffffffffffffffffffffffffffffffffffff167fddf252ad1be2c89b69c2b068fc378daa952ba7f163c4a11628f55a4df523b3ef60405160405180910390a4505050565b611edb828260405180602001604052806000815250612680565b5050565b6000611eea82610c4f565b9050611ef88160008461267b565b611f03600083611ace565b6001600360008373ffffffffffffffffffffffffffffffffffffffff1673ffffffffffffffffffffffffffffffffffffffff1681526020019081526020016000206000828254611f53919061395f565b925050819055506002600083815260200190815260200160002060006101000a81549073ffffffffffffffffffffffffffffffffffffffff021916905581600073ffffffffffffffffffffffffffffffffffffffff168273ffffffffffffffffffffffffffffffffffffffff167fddf252ad1be2c89b69c2b068fc378daa952ba7f163c4a11628f55a4df523b3ef60405160405180910390a45050565b6000600660009054906101000a900473ffffffffffffffffffffffffffffffffffffffff16905081600660006101000a81548173ffffffffffffffffffffffffffffffffffffffff021916908373ffffffffffffffffffffffffffffffffffffffff1602179055508173ffffffffffffffffffffffffffffffffffffffff168173ffffffffffffffffffffffffffffffffffffffff167f8be0079c531659141344cd1fd0a4f28419497f9722a3daafe3b4186f6b6457e060405160405180910390a35050565b81811015612230576000600760008584815181106120d7576120d66139ed565b5b6020026020010151815260200190815260200160002080548060200260200160405190810160405280929190818152602001828054801561213757602002820191906000526020600020905b815481526020019060010190808311612123575b5050505050905060008151905060005b818110156121c65761217387848381518110612166576121656139ed565b5b60200260200101516126db565b156121b3576040517f08c379a00000000000000000000000000000000000000000000000000000000081526004016121aa90614332565b60405180910390fd5b80806121be90613a1c565b915050612147565b50600760008685815181106121de576121dd6139ed565b5b602002602001015181526020019081526020016000208690806001815401808255809150506001900390600052602060002001600090919091909150555050808061222890613a1c565b9150506120b6565b5061223b8484611ec1565b50505050565b60008061224d84611885565b90506000604051806080016040528061270f815260200161270f815260200160008152602001600081525090506000600183602001518460600151612292919061395f565b61229c9190613909565b6001846000015185604001516122b2919061395f565b6122bc9190613909565b6122c69190613993565b9050600080600090505b865181101561240b5760006122fe8883815181106122f1576122f06139ed565b5b6020026020010151611885565b9050806000015185600001511061231957806000015161231f565b84600001515b8560000181815250508060200151856020015110612341578060200151612347565b84602001515b856020018181525050806040015185604001511161236957806040015161236f565b84604001515b8560400181815250508060600151856060015111612391578060600151612397565b84606001515b8560600181815250506001816020015182606001516123b6919061395f565b6123c09190613909565b6001826000015183604001516123d6919061395f565b6123e09190613909565b6123ea9190613993565b836123f59190613909565b925050808061240390613a1c565b9150506122d0565b508181148015612422575083600001518360000151145b8015612435575083602001518360200151145b8015612448575083604001518360400151145b801561245b575083606001518360600151145b94505050505092915050565b600061247282610d01565b905060005b8151811015612611576000828281518110612495576124946139ed565b5b602002602001015190506000600760008381526020019081526020016000208054806020026020016040519081016040528092919081815260200182805480156124fe57602002820191906000526020600020905b8154815260200190600101908083116124ea575b5050505050905060005b81518110156125fb57818181518110612524576125236139ed565b5b60200260200101518614156125e857600060076000858152602001908152602001600020905080828154811061255d5761255c6139ed565b5b9060005260206000200160009055826001845161257a919061395f565b8151811061258b5761258a6139ed565b5b60200260200101518183815481106125a6576125a56139ed565b5b906000526020600020018190555080600184516125c3919061395f565b815481106125d4576125d36139ed565b5b9060005260206000200160009055506125fb565b80806125f390613a1c565b915050612508565b505050808061260990613a1c565b915050612477565b5061261b82610bf3565b5050565b61262a848484611c65565b6126368484848461287a565b612675576040517f08c379a000000000000000000000000000000000000000000000000000000000815260040161266c906143c4565b60405180910390fd5b50505050565b505050565b61268a8383612a11565b612697600084848461287a565b6126d6576040517f08c379a00000000000000000000000000000000000000000000000000000000081526004016126cd906143c4565b60405180910390fd5b505050565b6000806126e784611885565b905060006126f484611885565b9050816060015181602001511180612713575081602001518160600151105b80612725575081604001518160000151115b80612737575081600001518160400151105b159250505092915050565b6000821461276c57808061275590613a1c565b915050600a826127659190613bb8565b9150612742565b60008167ffffffffffffffff81111561278857612787613106565b5b6040519080825280601f01601f1916602001820160405280156127ba5781602001600182028036833780820191505090505b50905060008290505b6000861461286e576001816127d8919061395f565b90506000600a80886127ea9190613bb8565b6127f49190613993565b876127ff919061395f565b603061280b91906143f1565b905060008160f81b905080848481518110612829576128286139ed565b5b60200101907effffffffffffffffffffffffffffffffffffffffffffffffffffffffffffff1916908160001a905350600a886128659190613bb8565b975050506127c3565b81945050505050919050565b600061289b8473ffffffffffffffffffffffffffffffffffffffff16612bdf565b15612a04578373ffffffffffffffffffffffffffffffffffffffff1663150b7a026128c4611ac6565b8786866040518563ffffffff1660e01b81526004016128e6949392919061447d565b602060405180830381600087803b15801561290057600080fd5b505af192505050801561293157506040513d601f19601f8201168201806040525081019061292e91906144de565b60015b6129b4573d8060008114612961576040519150601f19603f3d011682016040523d82523d6000602084013e612966565b606091505b506000815114156129ac576040517f08c379a00000000000000000000000000000000000000000000000000000000081526004016129a3906143c4565b60405180910390fd5b805181602001fd5b63150b7a0260e01b7bffffffffffffffffffffffffffffffffffffffffffffffffffffffff1916817bffffffffffffffffffffffffffffffffffffffffffffffffffffffff191614915050612a09565b600190505b949350505050565b600073ffffffffffffffffffffffffffffffffffffffff168273ffffffffffffffffffffffffffffffffffffffff161415612a81576040517f08c379a0000000000000000000000000000000000000000000000000000000008152600401612a7890614557565b60405180910390fd5b612a8a81611a5a565b15612aca576040517f08c379a0000000000000000000000000000000000000000000000000000000008152600401612ac1906145c3565b60405180910390fd5b612ad66000838361267b565b6001600360008473ffffffffffffffffffffffffffffffffffffffff1673ffffffffffffffffffffffffffffffffffffffff1681526020019081526020016000206000828254612b269190613909565b92505081905550816002600083815260200190815260200160002060006101000a81548173ffffffffffffffffffffffffffffffffffffffff021916908373ffffffffffffffffffffffffffffffffffffffff160217905550808273ffffffffffffffffffffffffffffffffffffffff16600073ffffffffffffffffffffffffffffffffffffffff167fddf252ad1be2c89b69c2b068fc378daa952ba7f163c4a11628f55a4df523b3ef60405160405180910390a45050565b600080823b905060008111915050919050565b828054612bfe90613660565b90600052602060002090601f016020900481019282612c205760008555612c67565b82601f10612c3957805160ff1916838001178555612c67565b82800160010185558215612c67579182015b82811115612c66578251825591602001919060010190612c4b565b5b509050612c749190612ca0565b5090565b6040518060800160405280600081526020016000815260200160008152602001600081525090565b5b80821115612cb9576000816000905550600101612ca1565b5090565b6000604051905090565b600080fd5b600080fd5b60007fffffffff0000000000000000000000000000000000000000000000000000000082169050919050565b612d0681612cd1565b8114612d1157600080fd5b50565b600081359050612d2381612cfd565b92915050565b600060208284031215612d3f57612d3e612cc7565b5b6000612d4d84828501612d14565b91505092915050565b60008115159050919050565b612d6b81612d56565b82525050565b6000602082019050612d866000830184612d62565b92915050565b6000819050919050565b612d9f81612d8c565b8114612daa57600080fd5b50565b600081359050612dbc81612d96565b92915050565b600060208284031215612dd857612dd7612cc7565b5b6000612de684828501612dad565b91505092915050565b600081519050919050565b600082825260208201905092915050565b6000819050602082019050919050565b612e2481612d8c565b82525050565b6000612e368383612e1b565b60208301905092915050565b6000602082019050919050565b6000612e5a82612def565b612e648185612dfa565b9350612e6f83612e0b565b8060005b83811015612ea0578151612e878882612e2a565b9750612e9283612e42565b925050600181019050612e73565b5085935050505092915050565b60006020820190508181036000830152612ec78184612e4f565b905092915050565b600081519050919050565b600082825260208201905092915050565b60005b83811015612f09578082015181840152602081019050612eee565b83811115612f18576000848401525b50505050565b6000601f19601f8301169050919050565b6000612f3a82612ecf565b612f448185612eda565b9350612f54818560208601612eeb565b612f5d81612f1e565b840191505092915050565b60006020820190508181036000830152612f828184612f2f565b905092915050565b600073ffffffffffffffffffffffffffffffffffffffff82169050919050565b6000612fb582612f8a565b9050919050565b612fc581612faa565b82525050565b6000602082019050612fe06000830184612fbc565b92915050565b612fef81612faa565b8114612ffa57600080fd5b50565b60008135905061300c81612fe6565b92915050565b6000806040838503121561302957613028612cc7565b5b600061303785828601612ffd565b925050602061304885828601612dad565b9150509250929050565b60008060006060848603121561306b5761306a612cc7565b5b600061307986828701612ffd565b935050602061308a86828701612ffd565b925050604061309b86828701612dad565b9150509250925092565b6000602082840312156130bb576130ba612cc7565b5b60006130c984828501612ffd565b91505092915050565b6130db81612d8c565b82525050565b60006020820190506130f660008301846130d2565b92915050565b600080fd5b600080fd5b7f4e487b7100000000000000000000000000000000000000000000000000000000600052604160045260246000fd5b61313e82612f1e565b810181811067ffffffffffffffff8211171561315d5761315c613106565b5b80604052505050565b6000613170612cbd565b905061317c8282613135565b919050565b600067ffffffffffffffff82111561319c5761319b613106565b5b6131a582612f1e565b9050602081019050919050565b82818337600083830152505050565b60006131d46131cf84613181565b613166565b9050828152602081018484840111156131f0576131ef613101565b5b6131fb8482856131b2565b509392505050565b600082601f830112613218576132176130fc565b5b81356132288482602086016131c1565b91505092915050565b6000806040838503121561324857613247612cc7565b5b600061325685828601612dad565b925050602083013567ffffffffffffffff81111561327757613276612ccc565b5b61328385828601613203565b9150509250929050565b61329681612d56565b81146132a157600080fd5b50565b6000813590506132b38161328d565b92915050565b600080604083850312156132d0576132cf612cc7565b5b60006132de85828601612ffd565b92505060206132ef858286016132a4565b9150509250929050565b600067ffffffffffffffff82111561331457613313613106565b5b602082029050602081019050919050565b600080fd5b600061333d613338846132f9565b613166565b905080838252602082019050602084028301858111156133605761335f613325565b5b835b8181101561338957806133758882612dad565b845260208401935050602081019050613362565b5050509392505050565b600082601f8301126133a8576133a76130fc565b5b81356133b884826020860161332a565b91505092915050565b600080604083850312156133d8576133d7612cc7565b5b60006133e685828601612dad565b925050602083013567ffffffffffffffff81111561340757613406612ccc565b5b61341385828601613393565b9150509250929050565b600067ffffffffffffffff82111561343857613437613106565b5b61344182612f1e565b9050602081019050919050565b600061346161345c8461341d565b613166565b90508281526020810184848401111561347d5761347c613101565b5b6134888482856131b2565b509392505050565b600082601f8301126134a5576134a46130fc565b5b81356134b584826020860161344e565b91505092915050565b600080600080608085870312156134d8576134d7612cc7565b5b60006134e687828801612ffd565b94505060206134f787828801612ffd565b935050604061350887828801612dad565b925050606085013567ffffffffffffffff81111561352957613528612ccc565b5b61353587828801613490565b91505092959194509250565b6000806040838503121561355857613557612cc7565b5b600061356685828601612dad565b925050602061357785828601612dad565b9150509250929050565b6000806040838503121561359857613597612cc7565b5b60006135a685828601612ffd565b92505060206135b785828601612ffd565b9150509250929050565b6080820160008201516135d76000850182612e1b565b5060208201516135ea6020850182612e1b565b5060408201516135fd6040850182612e1b565b5060608201516136106060850182612e1b565b50505050565b600060808201905061362b60008301846135c1565b92915050565b7f4e487b7100000000000000000000000000000000000000000000000000000000600052602260045260246000fd5b6000600282049050600182168061367857607f821691505b6020821081141561368c5761368b613631565b5b50919050565b7f4552433732313a20617070726f76656420717565727920666f72206e6f6e657860008201527f697374656e7420746f6b656e0000000000000000000000000000000000000000602082015250565b60006136ee602c83612eda565b91506136f982613692565b604082019050919050565b6000602082019050818103600083015261371d816136e1565b9050919050565b7f4552433732313a20617070726f76616c20746f2063757272656e74206f776e6560008201527f7200000000000000000000000000000000000000000000000000000000000000602082015250565b6000613780602183612eda565b915061378b82613724565b604082019050919050565b600060208201905081810360008301526137af81613773565b9050919050565b7f4552433732313a20617070726f76652063616c6c6572206973206e6f74206f7760008201527f6e6572206e6f7220617070726f76656420666f7220616c6c0000000000000000602082015250565b6000613812603883612eda565b915061381d826137b6565b604082019050919050565b6000602082019050818103600083015261384181613805565b9050919050565b7f4552433732313a207472616e736665722063616c6c6572206973206e6f74206f60008201527f776e6572206e6f7220617070726f766564000000000000000000000000000000602082015250565b60006138a4603183612eda565b91506138af82613848565b604082019050919050565b600060208201905081810360008301526138d381613897565b9050919050565b7f4e487b7100000000000000000000000000000000000000000000000000000000600052601160045260246000fd5b600061391482612d8c565b915061391f83612d8c565b9250827fffffffffffffffffffffffffffffffffffffffffffffffffffffffffffffffff03821115613954576139536138da565b5b828201905092915050565b600061396a82612d8c565b915061397583612d8c565b925082821015613988576139876138da565b5b828203905092915050565b600061399e82612d8c565b91506139a983612d8c565b9250817fffffffffffffffffffffffffffffffffffffffffffffffffffffffffffffffff04831182151516156139e2576139e16138da565b5b828202905092915050565b7f4e487b7100000000000000000000000000000000000000000000000000000000600052603260045260246000fd5b6000613a2782612d8c565b91507fffffffffffffffffffffffffffffffffffffffffffffffffffffffffffffffff821415613a5a57613a596138da565b5b600182019050919050565b7f4552433732314275726e61626c653a2063616c6c6572206973206e6f74206f7760008201527f6e6572206e6f7220617070726f76656400000000000000000000000000000000602082015250565b6000613ac1603083612eda565b9150613acc82613a65565b604082019050919050565b60006020820190508181036000830152613af081613ab4565b9050919050565b7f4552433732313a206f776e657220717565727920666f72206e6f6e657869737460008201527f656e7420746f6b656e0000000000000000000000000000000000000000000000602082015250565b6000613b53602983612eda565b9150613b5e82613af7565b604082019050919050565b60006020820190508181036000830152613b8281613b46565b9050919050565b7f4e487b7100000000000000000000000000000000000000000000000000000000600052601260045260246000fd5b6000613bc382612d8c565b9150613bce83612d8c565b925082613bde57613bdd613b89565b5b828204905092915050565b7f4552433732313a2062616c616e636520717565727920666f7220746865207a6560008201527f726f206164647265737300000000000000000000000000000000000000000000602082015250565b6000613c45602a83612eda565b9150613c5082613be9565b604082019050919050565b60006020820190508181036000830152613c7481613c38565b9050919050565b7f4f776e61626c653a2063616c6c6572206973206e6f7420746865206f776e6572600082015250565b6000613cb1602083612eda565b9150613cbc82613c7b565b602082019050919050565b60006020820190508181036000830152613ce081613ca4565b9050919050565b7f4e6f7420796f7572206e65774172656100000000000000000000000000000000600082015250565b6000613d1d601083612eda565b9150613d2882613ce7565b602082019050919050565b60006020820190508181036000830152613d4c81613d10565b9050919050565b7f4552433732313a20617070726f766520746f2063616c6c657200000000000000600082015250565b6000613d89601983612eda565b9150613d9482613d53565b602082019050919050565b60006020820190508181036000830152613db881613d7c565b9050919050565b7f6e6f74206f776e65720000000000000000000000000000000000000000000000600082015250565b6000613df5600983612eda565b9150613e0082613dbf565b602082019050919050565b60006020820190508181036000830152613e2481613de8565b9050919050565b7f50726f766964656420627265616b206973206e6f742066697474696e67000000600082015250565b6000613e61601d83612eda565b9150613e6c82613e2b565b602082019050919050565b60006020820190508181036000830152613e9081613e54565b9050919050565b7f50726f7669646564206d65726765206973206e6f742066697474696e67000000600082015250565b6000613ecd601d83612eda565b9150613ed882613e97565b602082019050919050565b60006020820190508181036000830152613efc81613ec0565b9050919050565b7f4552433732314d657461646174613a2055524920717565727920666f72206e6f60008201527f6e6578697374656e7420746f6b656e0000000000000000000000000000000000602082015250565b6000613f5f602f83612eda565b9150613f6a82613f03565b604082019050919050565b60006020820190508181036000830152613f8e81613f52565b9050919050565b7f4f776e61626c653a206e6577206f776e657220697320746865207a65726f206160008201527f6464726573730000000000000000000000000000000000000000000000000000602082015250565b6000613ff1602683612eda565b9150613ffc82613f95565b604082019050919050565b6000602082019050818103600083015261402081613fe4565b9050919050565b600061403282612d8c565b915061403d83612d8c565b92508261404d5761404c613b89565b5b828206905092915050565b7f496e76616c696420746f6b656e49640000000000000000000000000000000000600082015250565b600061408e600f83612eda565b915061409982614058565b602082019050919050565b600060208201905081810360008301526140bd81614081565b9050919050565b7f4f757473696465206f6620626f756e6473000000000000000000000000000000600082015250565b60006140fa601183612eda565b9150614105826140c4565b602082019050919050565b60006020820190508181036000830152614129816140ed565b9050919050565b7f4552433732313a206f70657261746f7220717565727920666f72206e6f6e657860008201527f697374656e7420746f6b656e0000000000000000000000000000000000000000602082015250565b600061418c602c83612eda565b915061419782614130565b604082019050919050565b600060208201905081810360008301526141bb8161417f565b9050919050565b7f4552433732313a207472616e73666572206f6620746f6b656e2074686174206960008201527f73206e6f74206f776e0000000000000000000000000000000000000000000000602082015250565b600061421e602983612eda565b9150614229826141c2565b604082019050919050565b6000602082019050818103600083015261424d81614211565b9050919050565b7f4552433732313a207472616e7366657220746f20746865207a65726f2061646460008201527f7265737300000000000000000000000000000000000000000000000000000000602082015250565b60006142b0602483612eda565b91506142bb82614254565b604082019050919050565b600060208201905081810360008301526142df816142a3565b9050919050565b7f41726561206973206f6363757069656400000000000000000000000000000000600082015250565b600061431c601083612eda565b9150614327826142e6565b602082019050919050565b6000602082019050818103600083015261434b8161430f565b9050919050565b7f4552433732313a207472616e7366657220746f206e6f6e20455243373231526560008201527f63656976657220696d706c656d656e7465720000000000000000000000000000602082015250565b60006143ae603283612eda565b91506143b982614352565b604082019050919050565b600060208201905081810360008301526143dd816143a1565b9050919050565b600060ff82169050919050565b60006143fc826143e4565b9150614407836143e4565b92508260ff0382111561441d5761441c6138da565b5b828201905092915050565b600081519050919050565b600082825260208201905092915050565b600061444f82614428565b6144598185614433565b9350614469818560208601612eeb565b61447281612f1e565b840191505092915050565b60006080820190506144926000830187612fbc565b61449f6020830186612fbc565b6144ac60408301856130d2565b81810360608301526144be8184614444565b905095945050505050565b6000815190506144d881612cfd565b92915050565b6000602082840312156144f4576144f3612cc7565b5b6000614502848285016144c9565b91505092915050565b7f4552433732313a206d696e7420746f20746865207a65726f2061646472657373600082015250565b6000614541602083612eda565b915061454c8261450b565b602082019050919050565b6000602082019050818103600083015261457081614534565b9050919050565b7f4552433732313a20746f6b656e20616c7265616479206d696e74656400000000600082015250565b60006145ad601c83612eda565b91506145b882614577565b602082019050919050565b600060208201905081810360008301526145dc816145a0565b905091905056fea2646970667358221220de775810b81b1fd313708470ea09e9027bbb2943edf719ead98538048532ea3864736f6c63430008090033",
  "immutableReferences": {},
  "source": "// SPDX-License-Identifier: MIT\r\npragma solidity ^0.8.2;\r\n\r\nimport \"@openzeppelin/contracts/token/ERC721/ERC721.sol\";\r\nimport \"@openzeppelin/contracts/token/ERC721/extensions/ERC721Burnable.sol\";\r\nimport \"@openzeppelin/contracts/access/Ownable.sol\";\r\n\r\ncontract RealPixestate is ERC721, ERC721Burnable, Ownable {\r\n\tstruct Section {\r\n\t\tuint256 top;\r\n\t\tuint256 left;\r\n\t\tuint256 bottom;\r\n\t\tuint256 right;\r\n\t}\r\n\r\n\tuint256 public constant dimensions = 1000;\r\n\tuint256 public constant spatialDimensions = 10;\r\n\tuint256 public constant spatialDimensionsSqr = spatialDimensions * spatialDimensions;\r\n\r\n\tmapping(uint256 => uint256[]) public spatialMap;\r\n\tmapping(uint256 => string) public uris;\r\n\r\n\tconstructor() ERC721(\"Real Pixestate\", \"RPX\") {}\r\n\r\n\tfunction tokenURI(uint256 tokenId) public view override returns (string memory) {\r\n\t\trequire(_exists(tokenId), \"ERC721Metadata: URI query for nonexistent token\");\r\n\t\treturn uris[tokenId];\r\n\t}\r\n\r\n\tfunction setUri(uint256 tokenId, string memory uri) public {\r\n\t\trequire(ownerOf(tokenId) == _msgSender(), \"Not your newArea\");\r\n\t\turis[tokenId] = uri;\r\n\t}\r\n\r\n\tfunction getMap(uint256 sArea) public view returns (uint256[] memory) {\r\n\t\treturn spatialMap[sArea];\r\n\t}\r\n\r\n\tfunction getSpatialHashes(uint256 tokenId) public pure returns (uint256[] memory) {\r\n\t\tSection memory section = breakTokenId(tokenId);\r\n\t\tSection memory spatialSection = Section(section.top / spatialDimensionsSqr, section.left / spatialDimensionsSqr, section.bottom / spatialDimensionsSqr, section.right / spatialDimensionsSqr);\r\n\r\n\t\tuint256 tHashes = (spatialSection.bottom - spatialSection.top + 1) * (spatialSection.right - spatialSection.left + 1);\r\n\t\tuint256[] memory hashes = new uint256[](tHashes);\r\n\t\tuint256 counter = 0;\r\n\t\tfor (uint256 row = spatialSection.top; row <= spatialSection.bottom; row++) {\r\n\t\t\tfor (uint256 col = spatialSection.left; col <= spatialSection.right; col++) {\r\n\t\t\t\thashes[counter++] = row * spatialDimensions + col;\r\n\t\t\t}\r\n\t\t}\r\n\r\n\t\treturn hashes;\r\n\t}\r\n\r\n\tfunction breakTokenId(uint256 tokenId) public pure returns (Section memory) {\r\n\t\tuint256 dimSquared = dimensions * dimensions;\r\n\t\tuint256 tl = tokenId / dimSquared;\r\n\t\tuint256 br = tokenId % dimSquared;\r\n\r\n\t\tuint256 top = (tl / dimensions);\r\n\t\tuint256 left = (tl % dimensions);\r\n\r\n\t\tuint256 bottom = (br / dimensions);\r\n\t\tuint256 right = (br % dimensions);\r\n\r\n\t\trequire(top <= bottom && left <= right, \"Invalid tokenId\");\r\n\t\trequire(top < dimensions && left < dimensions && bottom < dimensions && right < dimensions, \"Outside of bounds\");\r\n\r\n\t\treturn Section(top, left, bottom, right);\r\n\t}\r\n\r\n\tfunction isIntersecting(uint256 tokenId1, uint256 tokenId2) internal pure returns (bool) {\r\n\t\tSection memory Section1 = breakTokenId(tokenId1);\r\n\t\tSection memory Section2 = breakTokenId(tokenId2);\r\n\t\treturn !(Section2.left > Section1.right || Section2.right < Section1.left || Section2.top > Section1.bottom || Section2.bottom < Section1.top);\r\n\t}\r\n\r\n\tfunction safeMint(address to, uint256 tokenId) internal {\r\n\t\tuint256[] memory spatialHashes = getSpatialHashes(tokenId);\r\n\r\n\t\tuint256 sLength = spatialHashes.length;\r\n\t\tfor (uint256 i = 0; i < sLength; i++) {\r\n\t\t\tuint256[] memory hashesInArea = spatialMap[spatialHashes[i]];\r\n\t\t\tuint256 hLength = hashesInArea.length;\r\n\r\n\t\t\tfor (uint256 j = 0; j < hLength; j++) {\r\n\t\t\t\tif (isIntersecting(tokenId, hashesInArea[j])) {\r\n\t\t\t\t\trevert(\"Area is occupied\");\r\n\t\t\t\t}\r\n\t\t\t}\r\n\r\n\t\t\tspatialMap[spatialHashes[i]].push(tokenId);\r\n\t\t}\r\n\r\n\t\t_safeMint(to, tokenId);\r\n\t}\r\n\r\n\tfunction isSubTokenOf(uint256 tokenId, uint256[] memory subTokens) internal pure returns (bool) {\r\n\t\tSection memory section = breakTokenId(tokenId);\r\n\t\tSection memory mSection = Section(9999, 9999, 0, 0);\r\n\t\tuint256 area = (section.bottom - section.top + 1) * (section.right - section.left + 1);\r\n\t\tuint256 newArea;\r\n\r\n\t\tfor (uint256 i = 0; i < subTokens.length; i++) {\r\n\t\t\tSection memory cSection = breakTokenId(subTokens[i]);\r\n\t\t\tmSection.top = mSection.top < cSection.top ? mSection.top : cSection.top;\r\n\t\t\tmSection.left = mSection.left < cSection.left ? mSection.left : cSection.left;\r\n\t\t\tmSection.bottom = mSection.bottom > cSection.bottom ? mSection.bottom : cSection.bottom;\r\n\t\t\tmSection.right = mSection.right > cSection.right ? mSection.right : cSection.right;\r\n\t\t\tnewArea = newArea + ((cSection.bottom - cSection.top + 1) * (cSection.right - cSection.left + 1));\r\n\t\t}\r\n\r\n\t\treturn newArea == area && mSection.top == section.top && mSection.left == section.left && mSection.bottom == section.bottom && mSection.right == section.right;\r\n\t}\r\n\r\n\tfunction burnTokenId(uint256 tokenId) internal {\r\n\t\tuint256[] memory spatialHashes = getSpatialHashes(tokenId);\r\n\r\n\t\tfor (uint256 i = 0; i < spatialHashes.length; i++) {\r\n\t\t\tuint256 spatialHash = spatialHashes[i];\r\n\t\t\tuint256[] memory spatialMapHashes = spatialMap[spatialHash];\r\n\r\n\t\t\tfor (uint256 j = 0; j < spatialMapHashes.length; j++) {\r\n\t\t\t\tif (tokenId == spatialMapHashes[j]) {\r\n\t\t\t\t\tuint256[] storage mappedHashes = spatialMap[spatialHash];\r\n\t\t\t\t\tdelete mappedHashes[j];\r\n\t\t\t\t\tmappedHashes[j] = spatialMapHashes[spatialMapHashes.length - 1];\r\n\t\t\t\t\tdelete mappedHashes[spatialMapHashes.length - 1];\r\n\t\t\t\t\tbreak;\r\n\t\t\t\t}\r\n\t\t\t}\r\n\t\t}\r\n\r\n\t\tburn(tokenId);\r\n\t}\r\n\r\n\tfunction breakTokens(uint256 tokenId, uint256[] memory newTokens) public {\r\n\t\trequire(_isApprovedOrOwner(_msgSender(), tokenId), \"not owner\");\r\n\t\trequire(isSubTokenOf(tokenId, newTokens), \"Provided break is not fitting\");\r\n\r\n\t\tburnTokenId(tokenId);\r\n\r\n\t\tfor (uint256 i = 0; i < newTokens.length; i++) {\r\n\t\t\t_safeMint(_msgSender(), newTokens[i]);\r\n\t\t}\r\n\t}\r\n\r\n\tfunction mergeTokens(uint256 tokenId, uint256[] memory oldTokens) public {\r\n\t\tfor (uint256 i = 0; i < oldTokens.length; i++) {\r\n\t\t\trequire(_isApprovedOrOwner(_msgSender(), oldTokens[i]), \"not owner\");\r\n\t\t}\r\n\r\n\t\trequire(isSubTokenOf(tokenId, oldTokens), \"Provided merge is not fitting\");\r\n\r\n\t\tfor (uint256 i = 0; i < oldTokens.length; i++) {\r\n\t\t\tburnTokenId(oldTokens[i]);\r\n\t\t}\r\n\r\n\t\t_safeMint(_msgSender(), tokenId);\r\n\t}\r\n\r\n\tfunction testMint(uint256 js) public {\r\n\t\tfor (uint256 row = 0; row < dimensions; row += js) {\r\n\t\t\tfor (uint256 col = 0; col < dimensions; col += js) {\r\n\t\t\t\tuint256 tokenId = (row * dimensions + col) * dimensions * dimensions + ((row + js - 1) * dimensions + (col + js - 1));\r\n\r\n\t\t\t\tuint256[] memory hashes = getSpatialHashes(tokenId);\r\n\t\t\t\tfor (uint256 k = 0; k < hashes.length; k++) {\r\n\t\t\t\t\tspatialMap[hashes[k]].push(tokenId);\r\n\t\t\t\t}\r\n\r\n\t\t\t\t_safeMint(msg.sender, tokenId);\r\n\t\t\t}\r\n\t\t}\r\n\t}\r\n\r\n\tfunction testMintGas() public returns (string memory) {\r\n\t\treturn \"sd\";\r\n\t\treturn GasCost(\"Safe Mint\", safeMint);\r\n\t}\r\n\r\n\tfunction GasCost(string memory name, function(address, uint256) internal fun) internal returns (string memory) {\r\n\t\tuint256 u0 = gasleft();\r\n\t\tfun(msg.sender, 100100);\r\n\t\tuint256 u1 = gasleft();\r\n\t\tuint256 diff = u0 - u1;\r\n\t\treturn string(abi.encodePacked(name, \" GasCost: \", uint2str(diff)));\r\n\t}\r\n\r\n\tfunction uint2str(uint256 _i) internal pure returns (string memory _uintAsString) {\r\n\t\tif (_i == 0) {\r\n\t\t\treturn \"0\";\r\n\t\t}\r\n\t\tuint256 j = _i;\r\n\t\tuint256 len;\r\n\t\twhile (j != 0) {\r\n\t\t\tlen++;\r\n\t\t\tj /= 10;\r\n\t\t}\r\n\t\tbytes memory bstr = new bytes(len);\r\n\t\tuint256 k = len;\r\n\t\twhile (_i != 0) {\r\n\t\t\tk = k - 1;\r\n\t\t\tuint8 temp = (48 + uint8(_i - (_i / 10) * 10));\r\n\t\t\tbytes1 b1 = bytes1(temp);\r\n\t\t\tbstr[k] = b1;\r\n\t\t\t_i /= 10;\r\n\t\t}\r\n\t\treturn string(bstr);\r\n\t}\r\n}\r\n",
  "sourcePath": "D:\\GitProjs\\RealPixestate\\contracts\\RealPixestate.sol",
  "compiler": {
    "name": "solc",
    "version": "0.8.9+commit.e5eed63a.Emscripten.clang"
  },
  "schemaVersion": "3.4.3",
  "updatedAt": "2021-10-12T08:19:03.613Z",
  "networkType": "ethereum",
  "devdoc": {
    "kind": "dev",
    "methods": {
      "approve(address,uint256)": {
        "details": "See {IERC721-approve}."
      },
      "balanceOf(address)": {
        "details": "See {IERC721-balanceOf}."
      },
      "burn(uint256)": {
        "details": "Burns `tokenId`. See {ERC721-_burn}. Requirements: - The caller must own `tokenId` or be an approved operator."
      },
      "getApproved(uint256)": {
        "details": "See {IERC721-getApproved}."
      },
      "isApprovedForAll(address,address)": {
        "details": "See {IERC721-isApprovedForAll}."
      },
      "name()": {
        "details": "See {IERC721Metadata-name}."
      },
      "owner()": {
        "details": "Returns the address of the current owner."
      },
      "ownerOf(uint256)": {
        "details": "See {IERC721-ownerOf}."
      },
      "renounceOwnership()": {
        "details": "Leaves the contract without owner. It will not be possible to call `onlyOwner` functions anymore. Can only be called by the current owner. NOTE: Renouncing ownership will leave the contract without an owner, thereby removing any functionality that is only available to the owner."
      },
      "safeTransferFrom(address,address,uint256)": {
        "details": "See {IERC721-safeTransferFrom}."
      },
      "safeTransferFrom(address,address,uint256,bytes)": {
        "details": "See {IERC721-safeTransferFrom}."
      },
      "setApprovalForAll(address,bool)": {
        "details": "See {IERC721-setApprovalForAll}."
      },
      "supportsInterface(bytes4)": {
        "details": "See {IERC165-supportsInterface}."
      },
      "symbol()": {
        "details": "See {IERC721Metadata-symbol}."
      },
      "tokenURI(uint256)": {
        "details": "See {IERC721Metadata-tokenURI}."
      },
      "transferFrom(address,address,uint256)": {
        "details": "See {IERC721-transferFrom}."
      },
      "transferOwnership(address)": {
        "details": "Transfers ownership of the contract to a new account (`newOwner`). Can only be called by the current owner."
      }
    },
    "version": 1
  },
  "userdoc": {
    "kind": "user",
    "methods": {},
    "version": 1
  }
}