{
  "contractName": "RealPixestateNoSpatial",
  "abi": [
    {
      "inputs": [],
      "stateMutability": "nonpayable",
      "type": "constructor"
    },
    {
      "anonymous": false,
      "inputs": [
        {
          "indexed": true,
          "internalType": "address",
          "name": "owner",
          "type": "address"
        },
        {
          "indexed": true,
          "internalType": "address",
          "name": "approved",
          "type": "address"
        },
        {
          "indexed": true,
          "internalType": "uint256",
          "name": "tokenId",
          "type": "uint256"
        }
      ],
      "name": "Approval",
      "type": "event"
    },
    {
      "anonymous": false,
      "inputs": [
        {
          "indexed": true,
          "internalType": "address",
          "name": "owner",
          "type": "address"
        },
        {
          "indexed": true,
          "internalType": "address",
          "name": "operator",
          "type": "address"
        },
        {
          "indexed": false,
          "internalType": "bool",
          "name": "approved",
          "type": "bool"
        }
      ],
      "name": "ApprovalForAll",
      "type": "event"
    },
    {
      "anonymous": false,
      "inputs": [
        {
          "indexed": true,
          "internalType": "address",
          "name": "previousOwner",
          "type": "address"
        },
        {
          "indexed": true,
          "internalType": "address",
          "name": "newOwner",
          "type": "address"
        }
      ],
      "name": "OwnershipTransferred",
      "type": "event"
    },
    {
      "anonymous": false,
      "inputs": [
        {
          "indexed": true,
          "internalType": "address",
          "name": "from",
          "type": "address"
        },
        {
          "indexed": true,
          "internalType": "address",
          "name": "to",
          "type": "address"
        },
        {
          "indexed": true,
          "internalType": "uint256",
          "name": "tokenId",
          "type": "uint256"
        }
      ],
      "name": "Transfer",
      "type": "event"
    },
    {
      "inputs": [
        {
          "internalType": "address",
          "name": "to",
          "type": "address"
        },
        {
          "internalType": "uint256",
          "name": "tokenId",
          "type": "uint256"
        }
      ],
      "name": "approve",
      "outputs": [],
      "stateMutability": "nonpayable",
      "type": "function"
    },
    {
      "inputs": [
        {
          "internalType": "address",
          "name": "owner",
          "type": "address"
        }
      ],
      "name": "balanceOf",
      "outputs": [
        {
          "internalType": "uint256",
          "name": "",
          "type": "uint256"
        }
      ],
      "stateMutability": "view",
      "type": "function",
      "constant": true
    },
    {
      "inputs": [
        {
          "internalType": "uint256",
          "name": "tokenId",
          "type": "uint256"
        }
      ],
      "name": "burn",
      "outputs": [],
      "stateMutability": "nonpayable",
      "type": "function"
    },
    {
      "inputs": [],
      "name": "dimensions",
      "outputs": [
        {
          "internalType": "uint256",
          "name": "",
          "type": "uint256"
        }
      ],
      "stateMutability": "view",
      "type": "function",
      "constant": true
    },
    {
      "inputs": [
        {
          "internalType": "uint256",
          "name": "tokenId",
          "type": "uint256"
        }
      ],
      "name": "getApproved",
      "outputs": [
        {
          "internalType": "address",
          "name": "",
          "type": "address"
        }
      ],
      "stateMutability": "view",
      "type": "function",
      "constant": true
    },
    {
      "inputs": [
        {
          "internalType": "address",
          "name": "owner",
          "type": "address"
        },
        {
          "internalType": "address",
          "name": "operator",
          "type": "address"
        }
      ],
      "name": "isApprovedForAll",
      "outputs": [
        {
          "internalType": "bool",
          "name": "",
          "type": "bool"
        }
      ],
      "stateMutability": "view",
      "type": "function",
      "constant": true
    },
    {
      "inputs": [],
      "name": "name",
      "outputs": [
        {
          "internalType": "string",
          "name": "",
          "type": "string"
        }
      ],
      "stateMutability": "view",
      "type": "function",
      "constant": true
    },
    {
      "inputs": [],
      "name": "owner",
      "outputs": [
        {
          "internalType": "address",
          "name": "",
          "type": "address"
        }
      ],
      "stateMutability": "view",
      "type": "function",
      "constant": true
    },
    {
      "inputs": [
        {
          "internalType": "uint256",
          "name": "tokenId",
          "type": "uint256"
        }
      ],
      "name": "ownerOf",
      "outputs": [
        {
          "internalType": "address",
          "name": "",
          "type": "address"
        }
      ],
      "stateMutability": "view",
      "type": "function",
      "constant": true
    },
    {
      "inputs": [],
      "name": "renounceOwnership",
      "outputs": [],
      "stateMutability": "nonpayable",
      "type": "function"
    },
    {
      "inputs": [
        {
          "internalType": "address",
          "name": "from",
          "type": "address"
        },
        {
          "internalType": "address",
          "name": "to",
          "type": "address"
        },
        {
          "internalType": "uint256",
          "name": "tokenId",
          "type": "uint256"
        }
      ],
      "name": "safeTransferFrom",
      "outputs": [],
      "stateMutability": "nonpayable",
      "type": "function"
    },
    {
      "inputs": [
        {
          "internalType": "address",
          "name": "from",
          "type": "address"
        },
        {
          "internalType": "address",
          "name": "to",
          "type": "address"
        },
        {
          "internalType": "uint256",
          "name": "tokenId",
          "type": "uint256"
        },
        {
          "internalType": "bytes",
          "name": "_data",
          "type": "bytes"
        }
      ],
      "name": "safeTransferFrom",
      "outputs": [],
      "stateMutability": "nonpayable",
      "type": "function"
    },
    {
      "inputs": [
        {
          "internalType": "address",
          "name": "operator",
          "type": "address"
        },
        {
          "internalType": "bool",
          "name": "approved",
          "type": "bool"
        }
      ],
      "name": "setApprovalForAll",
      "outputs": [],
      "stateMutability": "nonpayable",
      "type": "function"
    },
    {
      "inputs": [
        {
          "internalType": "bytes4",
          "name": "interfaceId",
          "type": "bytes4"
        }
      ],
      "name": "supportsInterface",
      "outputs": [
        {
          "internalType": "bool",
          "name": "",
          "type": "bool"
        }
      ],
      "stateMutability": "view",
      "type": "function",
      "constant": true
    },
    {
      "inputs": [],
      "name": "symbol",
      "outputs": [
        {
          "internalType": "string",
          "name": "",
          "type": "string"
        }
      ],
      "stateMutability": "view",
      "type": "function",
      "constant": true
    },
    {
      "inputs": [
        {
          "internalType": "address",
          "name": "from",
          "type": "address"
        },
        {
          "internalType": "address",
          "name": "to",
          "type": "address"
        },
        {
          "internalType": "uint256",
          "name": "tokenId",
          "type": "uint256"
        }
      ],
      "name": "transferFrom",
      "outputs": [],
      "stateMutability": "nonpayable",
      "type": "function"
    },
    {
      "inputs": [
        {
          "internalType": "address",
          "name": "newOwner",
          "type": "address"
        }
      ],
      "name": "transferOwnership",
      "outputs": [],
      "stateMutability": "nonpayable",
      "type": "function"
    },
    {
      "inputs": [
        {
          "internalType": "uint256",
          "name": "",
          "type": "uint256"
        }
      ],
      "name": "uris",
      "outputs": [
        {
          "internalType": "string",
          "name": "",
          "type": "string"
        }
      ],
      "stateMutability": "view",
      "type": "function",
      "constant": true
    },
    {
      "inputs": [
        {
          "internalType": "uint256",
          "name": "tokenId",
          "type": "uint256"
        }
      ],
      "name": "tokenURI",
      "outputs": [
        {
          "internalType": "string",
          "name": "",
          "type": "string"
        }
      ],
      "stateMutability": "view",
      "type": "function",
      "constant": true
    },
    {
      "inputs": [
        {
          "internalType": "uint256",
          "name": "tokenId",
          "type": "uint256"
        },
        {
          "internalType": "string",
          "name": "uri",
          "type": "string"
        }
      ],
      "name": "setUri",
      "outputs": [],
      "stateMutability": "nonpayable",
      "type": "function"
    },
    {
      "inputs": [
        {
          "internalType": "uint256",
          "name": "tokenId",
          "type": "uint256"
        }
      ],
      "name": "breakTokenId",
      "outputs": [
        {
          "components": [
            {
              "internalType": "uint256",
              "name": "top",
              "type": "uint256"
            },
            {
              "internalType": "uint256",
              "name": "left",
              "type": "uint256"
            },
            {
              "internalType": "uint256",
              "name": "bottom",
              "type": "uint256"
            },
            {
              "internalType": "uint256",
              "name": "right",
              "type": "uint256"
            }
          ],
          "internalType": "struct RealPixestateNoSpatial.Section",
          "name": "",
          "type": "tuple"
        }
      ],
      "stateMutability": "pure",
      "type": "function",
      "constant": true
    },
    {
      "inputs": [
        {
          "internalType": "address",
          "name": "to",
          "type": "address"
        },
        {
          "internalType": "uint256",
          "name": "tokenId",
          "type": "uint256"
        }
      ],
      "name": "safeMint",
      "outputs": [],
      "stateMutability": "nonpayable",
      "type": "function"
    },
    {
      "inputs": [
        {
          "internalType": "uint256",
          "name": "tokenId",
          "type": "uint256"
        },
        {
          "internalType": "uint256[]",
          "name": "newTokens",
          "type": "uint256[]"
        }
      ],
      "name": "breakTokens",
      "outputs": [],
      "stateMutability": "nonpayable",
      "type": "function"
    },
    {
      "inputs": [
        {
          "internalType": "uint256",
          "name": "tokenId",
          "type": "uint256"
        },
        {
          "internalType": "uint256[]",
          "name": "oldTokens",
          "type": "uint256[]"
        }
      ],
      "name": "mergeTokens",
      "outputs": [],
      "stateMutability": "nonpayable",
      "type": "function"
    },
    {
      "inputs": [
        {
          "internalType": "uint256",
          "name": "js",
          "type": "uint256"
        }
      ],
      "name": "testMint",
      "outputs": [],
      "stateMutability": "nonpayable",
      "type": "function"
    }
  ],
  "bytecode": "0x60806040523480156200001157600080fd5b506040518060400160405280600e81526020017f5265616c205069786573746174650000000000000000000000000000000000008152506040518060400160405280600381526020017f5250580000000000000000000000000000000000000000000000000000000000815250816000908051906020019062000096929190620001a6565b508060019080519060200190620000af929190620001a6565b505050620000d2620000c6620000d860201b60201c565b620000e060201b60201c565b620002bb565b600033905090565b6000600660009054906101000a900473ffffffffffffffffffffffffffffffffffffffff16905081600660006101000a81548173ffffffffffffffffffffffffffffffffffffffff021916908373ffffffffffffffffffffffffffffffffffffffff1602179055508173ffffffffffffffffffffffffffffffffffffffff168173ffffffffffffffffffffffffffffffffffffffff167f8be0079c531659141344cd1fd0a4f28419497f9722a3daafe3b4186f6b6457e060405160405180910390a35050565b828054620001b49062000285565b90600052602060002090601f016020900481019282620001d8576000855562000224565b82601f10620001f357805160ff191683800117855562000224565b8280016001018555821562000224579182015b828111156200022357825182559160200191906001019062000206565b5b50905062000233919062000237565b5090565b5b808211156200025257600081600090555060010162000238565b5090565b7f4e487b7100000000000000000000000000000000000000000000000000000000600052602260045260246000fd5b600060028204905060018216806200029e57607f821691505b60208210811415620002b557620002b462000256565b5b50919050565b613d8680620002cb6000396000f3fe608060405234801561001057600080fd5b50600436106101735760003560e01c8063782f08ae116100de578063b88d4fde11610097578063d573c7f411610071578063d573c7f414610430578063e985e9c51461044e578063f2fde38b1461047e578063f9ef365d1461049a57610173565b8063b88d4fde146103c8578063c82710f3146103e4578063c87b56dd1461040057610173565b8063782f08ae1461031c5780638da5cb5b1461033857806395d89b4114610356578063a144819414610374578063a22cb46514610390578063aae1abde146103ac57610173565b80632f3f94ae116101305780632f3f94ae1461025e57806342842e0e1461027a57806342966c68146102965780636352211e146102b257806370a08231146102e2578063715018a61461031257610173565b806301ffc9a71461017857806306fdde03146101a8578063081812fc146101c6578063095ea7b3146101f65780631253c5461461021257806323b872dd14610242575b600080fd5b610192600480360381019061018d91906125eb565b6104ca565b60405161019f9190612633565b60405180910390f35b6101b06105ac565b6040516101bd91906126e7565b60405180910390f35b6101e060048036038101906101db919061273f565b61063e565b6040516101ed91906127ad565b60405180910390f35b610210600480360381019061020b91906127f4565b6106c3565b005b61022c6004803603810190610227919061273f565b6107db565b60405161023991906126e7565b60405180910390f35b61025c60048036038101906102579190612834565b61087b565b005b6102786004803603810190610273919061273f565b6108db565b005b610294600480360381019061028f9190612834565b610a5b565b005b6102b060048036038101906102ab919061273f565b610a7b565b005b6102cc60048036038101906102c7919061273f565b610ad7565b6040516102d991906127ad565b60405180910390f35b6102fc60048036038101906102f79190612887565b610b89565b60405161030991906128c3565b60405180910390f35b61031a610c41565b005b61033660048036038101906103319190612a13565b610cc9565b005b610340610d72565b60405161034d91906127ad565b60405180910390f35b61035e610d9c565b60405161036b91906126e7565b60405180910390f35b61038e600480360381019061038991906127f4565b610e2e565b005b6103aa60048036038101906103a59190612a9b565b610ef7565b005b6103c660048036038101906103c19190612ba3565b611078565b005b6103e260048036038101906103dd9190612ca0565b611169565b005b6103fe60048036038101906103f99190612ba3565b6111cb565b005b61041a6004803603810190610415919061273f565b6112f6565b60405161042791906126e7565b60405180910390f35b6104386113e3565b60405161044591906128c3565b60405180910390f35b61046860048036038101906104639190612d23565b6113e9565b6040516104759190612633565b60405180910390f35b61049860048036038101906104939190612887565b61147d565b005b6104b460048036038101906104af919061273f565b611575565b6040516104c19190612dc7565b60405180910390f35b60007f80ac58cd000000000000000000000000000000000000000000000000000000007bffffffffffffffffffffffffffffffffffffffffffffffffffffffff1916827bffffffffffffffffffffffffffffffffffffffffffffffffffffffff1916148061059557507f5b5e139f000000000000000000000000000000000000000000000000000000007bffffffffffffffffffffffffffffffffffffffffffffffffffffffff1916827bffffffffffffffffffffffffffffffffffffffffffffffffffffffff1916145b806105a557506105a4826116e0565b5b9050919050565b6060600080546105bb90612e11565b80601f01602080910402602001604051908101604052809291908181526020018280546105e790612e11565b80156106345780601f1061060957610100808354040283529160200191610634565b820191906000526020600020905b81548152906001019060200180831161061757829003601f168201915b5050505050905090565b60006106498261174a565b610688576040517f08c379a000000000000000000000000000000000000000000000000000000000815260040161067f90612eb5565b60405180910390fd5b6004600083815260200190815260200160002060009054906101000a900473ffffffffffffffffffffffffffffffffffffffff169050919050565b60006106ce82610ad7565b90508073ffffffffffffffffffffffffffffffffffffffff168373ffffffffffffffffffffffffffffffffffffffff16141561073f576040517f08c379a000000000000000000000000000000000000000000000000000000000815260040161073690612f47565b60405180910390fd5b8073ffffffffffffffffffffffffffffffffffffffff1661075e6117b6565b73ffffffffffffffffffffffffffffffffffffffff16148061078d575061078c816107876117b6565b6113e9565b5b6107cc576040517f08c379a00000000000000000000000000000000000000000000000000000000081526004016107c390612fd9565b60405180910390fd5b6107d683836117be565b505050565b600860205280600052604060002060009150905080546107fa90612e11565b80601f016020809104026020016040519081016040528092919081815260200182805461082690612e11565b80156108735780601f1061084857610100808354040283529160200191610873565b820191906000526020600020905b81548152906001019060200180831161085657829003601f168201915b505050505081565b61088c6108866117b6565b82611877565b6108cb576040517f08c379a00000000000000000000000000000000000000000000000000000000081526004016108c29061306b565b60405180910390fd5b6108d6838383611955565b505050565b600081826108e991906130ba565b6103e8806108f791906130ba565b6109019190613143565b905060008167ffffffffffffffff81111561091f5761091e6128e8565b5b60405190808252806020026020018201604052801561094d5781602001602082028036833780820191505090505b509050600080600090505b6103e8811015610a3d5760005b6103e8811015610a2957600060318261097e9190613174565b6103e860318561098e9190613174565b61099891906130ba565b6103e880856103e8886109ab91906130ba565b6109b59190613174565b6109bf91906130ba565b6109c991906130ba565b6109d39190613174565b6109dd9190613174565b90506109e93382611bb1565b808585806109f6906131ca565b965081518110610a0957610a08613213565b5b602002602001018181525050508581610a229190613174565b9050610965565b508481610a369190613174565b9050610958565b508160079080519060200190610a54929190612467565b5050505050565b610a7683838360405180602001604052806000815250611169565b505050565b610a8c610a866117b6565b82611877565b610acb576040517f08c379a0000000000000000000000000000000000000000000000000000000008152600401610ac2906132b4565b60405180910390fd5b610ad481611bcf565b50565b6000806002600084815260200190815260200160002060009054906101000a900473ffffffffffffffffffffffffffffffffffffffff169050600073ffffffffffffffffffffffffffffffffffffffff168173ffffffffffffffffffffffffffffffffffffffff161415610b80576040517f08c379a0000000000000000000000000000000000000000000000000000000008152600401610b7790613346565b60405180910390fd5b80915050919050565b60008073ffffffffffffffffffffffffffffffffffffffff168273ffffffffffffffffffffffffffffffffffffffff161415610bfa576040517f08c379a0000000000000000000000000000000000000000000000000000000008152600401610bf1906133d8565b60405180910390fd5b600360008373ffffffffffffffffffffffffffffffffffffffff1673ffffffffffffffffffffffffffffffffffffffff168152602001908152602001600020549050919050565b610c496117b6565b73ffffffffffffffffffffffffffffffffffffffff16610c67610d72565b73ffffffffffffffffffffffffffffffffffffffff1614610cbd576040517f08c379a0000000000000000000000000000000000000000000000000000000008152600401610cb490613444565b60405180910390fd5b610cc76000611ce0565b565b610cd16117b6565b73ffffffffffffffffffffffffffffffffffffffff16610cf083610ad7565b73ffffffffffffffffffffffffffffffffffffffff1614610d46576040517f08c379a0000000000000000000000000000000000000000000000000000000008152600401610d3d906134b0565b60405180910390fd5b80600860008481526020019081526020016000209080519060200190610d6d9291906124b4565b505050565b6000600660009054906101000a900473ffffffffffffffffffffffffffffffffffffffff16905090565b606060018054610dab90612e11565b80601f0160208091040260200160405190810160405280929190818152602001828054610dd790612e11565b8015610e245780601f10610df957610100808354040283529160200191610e24565b820191906000526020600020905b815481529060010190602001808311610e0757829003601f168201915b5050505050905090565b6000600780549050905060005b81811015610ebe57610e6b8360078381548110610e5b57610e5a613213565b5b9060005260206000200154611da6565b15610eab576040517f08c379a0000000000000000000000000000000000000000000000000000000008152600401610ea29061351c565b60405180910390fd5b8080610eb6906131ca565b915050610e3b565b506007829080600181540180825580915050600190039060005260206000200160009091909190915055610ef28383611bb1565b505050565b610eff6117b6565b73ffffffffffffffffffffffffffffffffffffffff168273ffffffffffffffffffffffffffffffffffffffff161415610f6d576040517f08c379a0000000000000000000000000000000000000000000000000000000008152600401610f6490613588565b60405180910390fd5b8060056000610f7a6117b6565b73ffffffffffffffffffffffffffffffffffffffff1673ffffffffffffffffffffffffffffffffffffffff16815260200190815260200160002060008473ffffffffffffffffffffffffffffffffffffffff1673ffffffffffffffffffffffffffffffffffffffff16815260200190815260200160002060006101000a81548160ff0219169083151502179055508173ffffffffffffffffffffffffffffffffffffffff166110276117b6565b73ffffffffffffffffffffffffffffffffffffffff167f17307eab39ab6107e8899845ad3d59bd9653f200f220920489ca2b5937696c318360405161106c9190612633565b60405180910390a35050565b6110896110836117b6565b83611877565b6110c8576040517f08c379a00000000000000000000000000000000000000000000000000000000081526004016110bf906135f4565b60405180910390fd5b6110d28282611e0d565b611111576040517f08c379a000000000000000000000000000000000000000000000000000000000815260040161110890613660565b60405180910390fd5b61111a82610a7b565b60005b8151811015611164576111516111316117b6565b83838151811061114457611143613213565b5b6020026020010151611bb1565b808061115c906131ca565b91505061111d565b505050565b61117a6111746117b6565b83611877565b6111b9576040517f08c379a00000000000000000000000000000000000000000000000000000000081526004016111b09061306b565b60405180910390fd5b6111c584848484612033565b50505050565b60005b8151811015611254576112026111e26117b6565b8383815181106111f5576111f4613213565b5b6020026020010151611877565b611241576040517f08c379a0000000000000000000000000000000000000000000000000000000008152600401611238906135f4565b60405180910390fd5b808061124c906131ca565b9150506111ce565b5061125f8282611e0d565b61129e576040517f08c379a0000000000000000000000000000000000000000000000000000000008152600401611295906136cc565b60405180910390fd5b60005b81518110156112e0576112cd8282815181106112c0576112bf613213565b5b6020026020010151610a7b565b80806112d8906131ca565b9150506112a1565b506112f26112ec6117b6565b83611bb1565b5050565b60606113018261174a565b611340576040517f08c379a00000000000000000000000000000000000000000000000000000000081526004016113379061375e565b60405180910390fd5b60086000838152602001908152602001600020805461135e90612e11565b80601f016020809104026020016040519081016040528092919081815260200182805461138a90612e11565b80156113d75780601f106113ac576101008083540402835291602001916113d7565b820191906000526020600020905b8154815290600101906020018083116113ba57829003601f168201915b50505050509050919050565b6103e881565b6000600560008473ffffffffffffffffffffffffffffffffffffffff1673ffffffffffffffffffffffffffffffffffffffff16815260200190815260200160002060008373ffffffffffffffffffffffffffffffffffffffff1673ffffffffffffffffffffffffffffffffffffffff16815260200190815260200160002060009054906101000a900460ff16905092915050565b6114856117b6565b73ffffffffffffffffffffffffffffffffffffffff166114a3610d72565b73ffffffffffffffffffffffffffffffffffffffff16146114f9576040517f08c379a00000000000000000000000000000000000000000000000000000000081526004016114f090613444565b60405180910390fd5b600073ffffffffffffffffffffffffffffffffffffffff168173ffffffffffffffffffffffffffffffffffffffff161415611569576040517f08c379a0000000000000000000000000000000000000000000000000000000008152600401611560906137f0565b60405180910390fd5b61157281611ce0565b50565b61157d61253a565b60006103e88061158d91906130ba565b90506000818461159d9190613143565b9050600082856115ad9190613810565b905060006103e8836115bf9190613143565b905060006103e8846115d19190613810565b905060006103e8846115e39190613143565b905060006103e8856115f59190613810565b90508083111580156116075750818411155b611646576040517f08c379a000000000000000000000000000000000000000000000000000000000815260040161163d9061388d565b60405180910390fd5b6103e88310801561165857506103e884105b801561166557506103e881105b801561167257506103e882105b6116b1576040517f08c379a00000000000000000000000000000000000000000000000000000000081526004016116a8906138f9565b60405180910390fd5b604051806080016040528084815260200185815260200182815260200183815250975050505050505050919050565b60007f01ffc9a7000000000000000000000000000000000000000000000000000000007bffffffffffffffffffffffffffffffffffffffffffffffffffffffff1916827bffffffffffffffffffffffffffffffffffffffffffffffffffffffff1916149050919050565b60008073ffffffffffffffffffffffffffffffffffffffff166002600084815260200190815260200160002060009054906101000a900473ffffffffffffffffffffffffffffffffffffffff1673ffffffffffffffffffffffffffffffffffffffff1614159050919050565b600033905090565b816004600083815260200190815260200160002060006101000a81548173ffffffffffffffffffffffffffffffffffffffff021916908373ffffffffffffffffffffffffffffffffffffffff160217905550808273ffffffffffffffffffffffffffffffffffffffff1661183183610ad7565b73ffffffffffffffffffffffffffffffffffffffff167f8c5be1e5ebec7d5bd14f71427d1e84f3dd0314c0f7b2291e5b200ac8c7c3b92560405160405180910390a45050565b60006118828261174a565b6118c1576040517f08c379a00000000000000000000000000000000000000000000000000000000081526004016118b89061398b565b60405180910390fd5b60006118cc83610ad7565b90508073ffffffffffffffffffffffffffffffffffffffff168473ffffffffffffffffffffffffffffffffffffffff16148061193b57508373ffffffffffffffffffffffffffffffffffffffff166119238461063e565b73ffffffffffffffffffffffffffffffffffffffff16145b8061194c575061194b81856113e9565b5b91505092915050565b8273ffffffffffffffffffffffffffffffffffffffff1661197582610ad7565b73ffffffffffffffffffffffffffffffffffffffff16146119cb576040517f08c379a00000000000000000000000000000000000000000000000000000000081526004016119c290613a1d565b60405180910390fd5b600073ffffffffffffffffffffffffffffffffffffffff168273ffffffffffffffffffffffffffffffffffffffff161415611a3b576040517f08c379a0000000000000000000000000000000000000000000000000000000008152600401611a3290613aaf565b60405180910390fd5b611a4683838361208f565b611a516000826117be565b6001600360008573ffffffffffffffffffffffffffffffffffffffff1673ffffffffffffffffffffffffffffffffffffffff1681526020019081526020016000206000828254611aa19190613acf565b925050819055506001600360008473ffffffffffffffffffffffffffffffffffffffff1673ffffffffffffffffffffffffffffffffffffffff1681526020019081526020016000206000828254611af89190613174565b92505081905550816002600083815260200190815260200160002060006101000a81548173ffffffffffffffffffffffffffffffffffffffff021916908373ffffffffffffffffffffffffffffffffffffffff160217905550808273ffffffffffffffffffffffffffffffffffffffff168473ffffffffffffffffffffffffffffffffffffffff167fddf252ad1be2c89b69c2b068fc378daa952ba7f163c4a11628f55a4df523b3ef60405160405180910390a4505050565b611bcb828260405180602001604052806000815250612094565b5050565b6000611bda82610ad7565b9050611be88160008461208f565b611bf36000836117be565b6001600360008373ffffffffffffffffffffffffffffffffffffffff1673ffffffffffffffffffffffffffffffffffffffff1681526020019081526020016000206000828254611c439190613acf565b925050819055506002600083815260200190815260200160002060006101000a81549073ffffffffffffffffffffffffffffffffffffffff021916905581600073ffffffffffffffffffffffffffffffffffffffff168273ffffffffffffffffffffffffffffffffffffffff167fddf252ad1be2c89b69c2b068fc378daa952ba7f163c4a11628f55a4df523b3ef60405160405180910390a45050565b6000600660009054906101000a900473ffffffffffffffffffffffffffffffffffffffff16905081600660006101000a81548173ffffffffffffffffffffffffffffffffffffffff021916908373ffffffffffffffffffffffffffffffffffffffff1602179055508173ffffffffffffffffffffffffffffffffffffffff168173ffffffffffffffffffffffffffffffffffffffff167f8be0079c531659141344cd1fd0a4f28419497f9722a3daafe3b4186f6b6457e060405160405180910390a35050565b600080611db284611575565b90506000611dbf84611575565b9050816060015181602001511180611dde575081602001518160600151105b80611df0575081604001518160000151115b80611e02575081600001518160400151105b159250505092915050565b600080611e1984611575565b90506000604051806080016040528061270f815260200161270f815260200160008152602001600081525090506000600183602001518460600151611e5e9190613acf565b611e689190613174565b600184600001518560400151611e7e9190613acf565b611e889190613174565b611e9291906130ba565b9050600080600090505b8651811015611fd7576000611eca888381518110611ebd57611ebc613213565b5b6020026020010151611575565b90508060000151856000015110611ee5578060000151611eeb565b84600001515b8560000181815250508060200151856020015110611f0d578060200151611f13565b84602001515b8560200181815250508060400151856040015111611f35578060400151611f3b565b84604001515b8560400181815250508060600151856060015111611f5d578060600151611f63565b84606001515b856060018181525050600181602001518260600151611f829190613acf565b611f8c9190613174565b600182600001518360400151611fa29190613acf565b611fac9190613174565b611fb691906130ba565b83611fc19190613174565b9250508080611fcf906131ca565b915050611e9c565b508181148015611fee575083600001518360000151145b8015612001575083602001518360200151145b8015612014575083604001518360400151145b8015612027575083606001518360600151145b94505050505092915050565b61203e848484611955565b61204a848484846120ef565b612089576040517f08c379a000000000000000000000000000000000000000000000000000000000815260040161208090613b75565b60405180910390fd5b50505050565b505050565b61209e8383612286565b6120ab60008484846120ef565b6120ea576040517f08c379a00000000000000000000000000000000000000000000000000000000081526004016120e190613b75565b60405180910390fd5b505050565b60006121108473ffffffffffffffffffffffffffffffffffffffff16612454565b15612279578373ffffffffffffffffffffffffffffffffffffffff1663150b7a026121396117b6565b8786866040518563ffffffff1660e01b815260040161215b9493929190613bea565b602060405180830381600087803b15801561217557600080fd5b505af19250505080156121a657506040513d601f19601f820116820180604052508101906121a39190613c4b565b60015b612229573d80600081146121d6576040519150601f19603f3d011682016040523d82523d6000602084013e6121db565b606091505b50600081511415612221576040517f08c379a000000000000000000000000000000000000000000000000000000000815260040161221890613b75565b60405180910390fd5b805181602001fd5b63150b7a0260e01b7bffffffffffffffffffffffffffffffffffffffffffffffffffffffff1916817bffffffffffffffffffffffffffffffffffffffffffffffffffffffff19161491505061227e565b600190505b949350505050565b600073ffffffffffffffffffffffffffffffffffffffff168273ffffffffffffffffffffffffffffffffffffffff1614156122f6576040517f08c379a00000000000000000000000000000000000000000000000000000000081526004016122ed90613cc4565b60405180910390fd5b6122ff8161174a565b1561233f576040517f08c379a000000000000000000000000000000000000000000000000000000000815260040161233690613d30565b60405180910390fd5b61234b6000838361208f565b6001600360008473ffffffffffffffffffffffffffffffffffffffff1673ffffffffffffffffffffffffffffffffffffffff168152602001908152602001600020600082825461239b9190613174565b92505081905550816002600083815260200190815260200160002060006101000a81548173ffffffffffffffffffffffffffffffffffffffff021916908373ffffffffffffffffffffffffffffffffffffffff160217905550808273ffffffffffffffffffffffffffffffffffffffff16600073ffffffffffffffffffffffffffffffffffffffff167fddf252ad1be2c89b69c2b068fc378daa952ba7f163c4a11628f55a4df523b3ef60405160405180910390a45050565b600080823b905060008111915050919050565b8280548282559060005260206000209081019282156124a3579160200282015b828111156124a2578251825591602001919060010190612487565b5b5090506124b09190612562565b5090565b8280546124c090612e11565b90600052602060002090601f0160209004810192826124e25760008555612529565b82601f106124fb57805160ff1916838001178555612529565b82800160010185558215612529579182015b8281111561252857825182559160200191906001019061250d565b5b5090506125369190612562565b5090565b6040518060800160405280600081526020016000815260200160008152602001600081525090565b5b8082111561257b576000816000905550600101612563565b5090565b6000604051905090565b600080fd5b600080fd5b60007fffffffff0000000000000000000000000000000000000000000000000000000082169050919050565b6125c881612593565b81146125d357600080fd5b50565b6000813590506125e5816125bf565b92915050565b60006020828403121561260157612600612589565b5b600061260f848285016125d6565b91505092915050565b60008115159050919050565b61262d81612618565b82525050565b60006020820190506126486000830184612624565b92915050565b600081519050919050565b600082825260208201905092915050565b60005b8381101561268857808201518184015260208101905061266d565b83811115612697576000848401525b50505050565b6000601f19601f8301169050919050565b60006126b98261264e565b6126c38185612659565b93506126d381856020860161266a565b6126dc8161269d565b840191505092915050565b6000602082019050818103600083015261270181846126ae565b905092915050565b6000819050919050565b61271c81612709565b811461272757600080fd5b50565b60008135905061273981612713565b92915050565b60006020828403121561275557612754612589565b5b60006127638482850161272a565b91505092915050565b600073ffffffffffffffffffffffffffffffffffffffff82169050919050565b60006127978261276c565b9050919050565b6127a78161278c565b82525050565b60006020820190506127c2600083018461279e565b92915050565b6127d18161278c565b81146127dc57600080fd5b50565b6000813590506127ee816127c8565b92915050565b6000806040838503121561280b5761280a612589565b5b6000612819858286016127df565b925050602061282a8582860161272a565b9150509250929050565b60008060006060848603121561284d5761284c612589565b5b600061285b868287016127df565b935050602061286c868287016127df565b925050604061287d8682870161272a565b9150509250925092565b60006020828403121561289d5761289c612589565b5b60006128ab848285016127df565b91505092915050565b6128bd81612709565b82525050565b60006020820190506128d860008301846128b4565b92915050565b600080fd5b600080fd5b7f4e487b7100000000000000000000000000000000000000000000000000000000600052604160045260246000fd5b6129208261269d565b810181811067ffffffffffffffff8211171561293f5761293e6128e8565b5b80604052505050565b600061295261257f565b905061295e8282612917565b919050565b600067ffffffffffffffff82111561297e5761297d6128e8565b5b6129878261269d565b9050602081019050919050565b82818337600083830152505050565b60006129b66129b184612963565b612948565b9050828152602081018484840111156129d2576129d16128e3565b5b6129dd848285612994565b509392505050565b600082601f8301126129fa576129f96128de565b5b8135612a0a8482602086016129a3565b91505092915050565b60008060408385031215612a2a57612a29612589565b5b6000612a388582860161272a565b925050602083013567ffffffffffffffff811115612a5957612a5861258e565b5b612a65858286016129e5565b9150509250929050565b612a7881612618565b8114612a8357600080fd5b50565b600081359050612a9581612a6f565b92915050565b60008060408385031215612ab257612ab1612589565b5b6000612ac0858286016127df565b9250506020612ad185828601612a86565b9150509250929050565b600067ffffffffffffffff821115612af657612af56128e8565b5b602082029050602081019050919050565b600080fd5b6000612b1f612b1a84612adb565b612948565b90508083825260208201905060208402830185811115612b4257612b41612b07565b5b835b81811015612b6b5780612b57888261272a565b845260208401935050602081019050612b44565b5050509392505050565b600082601f830112612b8a57612b896128de565b5b8135612b9a848260208601612b0c565b91505092915050565b60008060408385031215612bba57612bb9612589565b5b6000612bc88582860161272a565b925050602083013567ffffffffffffffff811115612be957612be861258e565b5b612bf585828601612b75565b9150509250929050565b600067ffffffffffffffff821115612c1a57612c196128e8565b5b612c238261269d565b9050602081019050919050565b6000612c43612c3e84612bff565b612948565b905082815260208101848484011115612c5f57612c5e6128e3565b5b612c6a848285612994565b509392505050565b600082601f830112612c8757612c866128de565b5b8135612c97848260208601612c30565b91505092915050565b60008060008060808587031215612cba57612cb9612589565b5b6000612cc8878288016127df565b9450506020612cd9878288016127df565b9350506040612cea8782880161272a565b925050606085013567ffffffffffffffff811115612d0b57612d0a61258e565b5b612d1787828801612c72565b91505092959194509250565b60008060408385031215612d3a57612d39612589565b5b6000612d48858286016127df565b9250506020612d59858286016127df565b9150509250929050565b612d6c81612709565b82525050565b608082016000820151612d886000850182612d63565b506020820151612d9b6020850182612d63565b506040820151612dae6040850182612d63565b506060820151612dc16060850182612d63565b50505050565b6000608082019050612ddc6000830184612d72565b92915050565b7f4e487b7100000000000000000000000000000000000000000000000000000000600052602260045260246000fd5b60006002820490506001821680612e2957607f821691505b60208210811415612e3d57612e3c612de2565b5b50919050565b7f4552433732313a20617070726f76656420717565727920666f72206e6f6e657860008201527f697374656e7420746f6b656e0000000000000000000000000000000000000000602082015250565b6000612e9f602c83612659565b9150612eaa82612e43565b604082019050919050565b60006020820190508181036000830152612ece81612e92565b9050919050565b7f4552433732313a20617070726f76616c20746f2063757272656e74206f776e6560008201527f7200000000000000000000000000000000000000000000000000000000000000602082015250565b6000612f31602183612659565b9150612f3c82612ed5565b604082019050919050565b60006020820190508181036000830152612f6081612f24565b9050919050565b7f4552433732313a20617070726f76652063616c6c6572206973206e6f74206f7760008201527f6e6572206e6f7220617070726f76656420666f7220616c6c0000000000000000602082015250565b6000612fc3603883612659565b9150612fce82612f67565b604082019050919050565b60006020820190508181036000830152612ff281612fb6565b9050919050565b7f4552433732313a207472616e736665722063616c6c6572206973206e6f74206f60008201527f776e6572206e6f7220617070726f766564000000000000000000000000000000602082015250565b6000613055603183612659565b915061306082612ff9565b604082019050919050565b6000602082019050818103600083015261308481613048565b9050919050565b7f4e487b7100000000000000000000000000000000000000000000000000000000600052601160045260246000fd5b60006130c582612709565b91506130d083612709565b9250817fffffffffffffffffffffffffffffffffffffffffffffffffffffffffffffffff04831182151516156131095761310861308b565b5b828202905092915050565b7f4e487b7100000000000000000000000000000000000000000000000000000000600052601260045260246000fd5b600061314e82612709565b915061315983612709565b92508261316957613168613114565b5b828204905092915050565b600061317f82612709565b915061318a83612709565b9250827fffffffffffffffffffffffffffffffffffffffffffffffffffffffffffffffff038211156131bf576131be61308b565b5b828201905092915050565b60006131d582612709565b91507fffffffffffffffffffffffffffffffffffffffffffffffffffffffffffffffff8214156132085761320761308b565b5b600182019050919050565b7f4e487b7100000000000000000000000000000000000000000000000000000000600052603260045260246000fd5b7f4552433732314275726e61626c653a2063616c6c6572206973206e6f74206f7760008201527f6e6572206e6f7220617070726f76656400000000000000000000000000000000602082015250565b600061329e603083612659565b91506132a982613242565b604082019050919050565b600060208201905081810360008301526132cd81613291565b9050919050565b7f4552433732313a206f776e657220717565727920666f72206e6f6e657869737460008201527f656e7420746f6b656e0000000000000000000000000000000000000000000000602082015250565b6000613330602983612659565b915061333b826132d4565b604082019050919050565b6000602082019050818103600083015261335f81613323565b9050919050565b7f4552433732313a2062616c616e636520717565727920666f7220746865207a6560008201527f726f206164647265737300000000000000000000000000000000000000000000602082015250565b60006133c2602a83612659565b91506133cd82613366565b604082019050919050565b600060208201905081810360008301526133f1816133b5565b9050919050565b7f4f776e61626c653a2063616c6c6572206973206e6f7420746865206f776e6572600082015250565b600061342e602083612659565b9150613439826133f8565b602082019050919050565b6000602082019050818103600083015261345d81613421565b9050919050565b7f4e6f7420796f7572206e65774172656100000000000000000000000000000000600082015250565b600061349a601083612659565b91506134a582613464565b602082019050919050565b600060208201905081810360008301526134c98161348d565b9050919050565b7f41726561206973206f6363757069656400000000000000000000000000000000600082015250565b6000613506601083612659565b9150613511826134d0565b602082019050919050565b60006020820190508181036000830152613535816134f9565b9050919050565b7f4552433732313a20617070726f766520746f2063616c6c657200000000000000600082015250565b6000613572601983612659565b915061357d8261353c565b602082019050919050565b600060208201905081810360008301526135a181613565565b9050919050565b7f6e6f74206f776e65720000000000000000000000000000000000000000000000600082015250565b60006135de600983612659565b91506135e9826135a8565b602082019050919050565b6000602082019050818103600083015261360d816135d1565b9050919050565b7f50726f766964656420627265616b206973206e6f742066697474696e67000000600082015250565b600061364a601d83612659565b915061365582613614565b602082019050919050565b600060208201905081810360008301526136798161363d565b9050919050565b7f50726f7669646564206d65726765206973206e6f742066697474696e67000000600082015250565b60006136b6601d83612659565b91506136c182613680565b602082019050919050565b600060208201905081810360008301526136e5816136a9565b9050919050565b7f4552433732314d657461646174613a2055524920717565727920666f72206e6f60008201527f6e6578697374656e7420746f6b656e0000000000000000000000000000000000602082015250565b6000613748602f83612659565b9150613753826136ec565b604082019050919050565b600060208201905081810360008301526137778161373b565b9050919050565b7f4f776e61626c653a206e6577206f776e657220697320746865207a65726f206160008201527f6464726573730000000000000000000000000000000000000000000000000000602082015250565b60006137da602683612659565b91506137e58261377e565b604082019050919050565b60006020820190508181036000830152613809816137cd565b9050919050565b600061381b82612709565b915061382683612709565b92508261383657613835613114565b5b828206905092915050565b7f496e76616c696420746f6b656e49640000000000000000000000000000000000600082015250565b6000613877600f83612659565b915061388282613841565b602082019050919050565b600060208201905081810360008301526138a68161386a565b9050919050565b7f4f757473696465206f6620626f756e6473000000000000000000000000000000600082015250565b60006138e3601183612659565b91506138ee826138ad565b602082019050919050565b60006020820190508181036000830152613912816138d6565b9050919050565b7f4552433732313a206f70657261746f7220717565727920666f72206e6f6e657860008201527f697374656e7420746f6b656e0000000000000000000000000000000000000000602082015250565b6000613975602c83612659565b915061398082613919565b604082019050919050565b600060208201905081810360008301526139a481613968565b9050919050565b7f4552433732313a207472616e73666572206f6620746f6b656e2074686174206960008201527f73206e6f74206f776e0000000000000000000000000000000000000000000000602082015250565b6000613a07602983612659565b9150613a12826139ab565b604082019050919050565b60006020820190508181036000830152613a36816139fa565b9050919050565b7f4552433732313a207472616e7366657220746f20746865207a65726f2061646460008201527f7265737300000000000000000000000000000000000000000000000000000000602082015250565b6000613a99602483612659565b9150613aa482613a3d565b604082019050919050565b60006020820190508181036000830152613ac881613a8c565b9050919050565b6000613ada82612709565b9150613ae583612709565b925082821015613af857613af761308b565b5b828203905092915050565b7f4552433732313a207472616e7366657220746f206e6f6e20455243373231526560008201527f63656976657220696d706c656d656e7465720000000000000000000000000000602082015250565b6000613b5f603283612659565b9150613b6a82613b03565b604082019050919050565b60006020820190508181036000830152613b8e81613b52565b9050919050565b600081519050919050565b600082825260208201905092915050565b6000613bbc82613b95565b613bc68185613ba0565b9350613bd681856020860161266a565b613bdf8161269d565b840191505092915050565b6000608082019050613bff600083018761279e565b613c0c602083018661279e565b613c1960408301856128b4565b8181036060830152613c2b8184613bb1565b905095945050505050565b600081519050613c45816125bf565b92915050565b600060208284031215613c6157613c60612589565b5b6000613c6f84828501613c36565b91505092915050565b7f4552433732313a206d696e7420746f20746865207a65726f2061646472657373600082015250565b6000613cae602083612659565b9150613cb982613c78565b602082019050919050565b60006020820190508181036000830152613cdd81613ca1565b9050919050565b7f4552433732313a20746f6b656e20616c7265616479206d696e74656400000000600082015250565b6000613d1a601c83612659565b9150613d2582613ce4565b602082019050919050565b60006020820190508181036000830152613d4981613d0d565b905091905056fea26469706673582212209ffe258678d8e61e4c44fc800d79e5c4f2bfecadf885bd6515d509220a38908f64736f6c63430008090033",
  "immutableReferences": {},
  "source": "// SPDX-License-Identifier: MIT\r\npragma solidity ^0.8.2;\r\n\r\nimport \"@openzeppelin/contracts/token/ERC721/ERC721.sol\";\r\nimport \"@openzeppelin/contracts/token/ERC721/extensions/ERC721Burnable.sol\";\r\nimport \"@openzeppelin/contracts/access/Ownable.sol\";\r\n\r\ncontract RealPixestateNoSpatial is ERC721, ERC721Burnable, Ownable {\r\n\tstruct Section {\r\n\t\tuint256 top;\r\n\t\tuint256 left;\r\n\t\tuint256 bottom;\r\n\t\tuint256 right;\r\n\t}\r\n\r\n\tuint256[] usedTokenId;\r\n\tuint256 public constant dimensions = 1000;\r\n\tmapping(uint256 => string) public uris;\r\n\r\n\tconstructor() ERC721(\"Real Pixestate\", \"RPX\") {}\r\n\r\n\tfunction tokenURI(uint256 tokenId) public view override returns (string memory) {\r\n\t\trequire(_exists(tokenId), \"ERC721Metadata: URI query for nonexistent token\");\r\n\t\treturn uris[tokenId];\r\n\t}\r\n\r\n\tfunction setUri(uint256 tokenId, string memory uri) public {\r\n\t\trequire(ownerOf(tokenId) == _msgSender(), \"Not your newArea\");\r\n\t\turis[tokenId] = uri;\r\n\t}\r\n\r\n\tfunction breakTokenId(uint256 tokenId) public pure returns (Section memory) {\r\n\t\tuint256 dimSquared = dimensions * dimensions;\r\n\t\tuint256 tl = tokenId / dimSquared;\r\n\t\tuint256 br = tokenId % dimSquared;\r\n\r\n\t\tuint256 left = (tl / dimensions);\r\n\t\tuint256 top = (tl % dimensions);\r\n\r\n\t\tuint256 right = (br / dimensions);\r\n\t\tuint256 bottom = (br % dimensions);\r\n\r\n\t\trequire(top <= bottom && left <= right, \"Invalid tokenId\");\r\n\t\trequire(top < dimensions && left < dimensions && bottom < dimensions && right < dimensions, \"Outside of bounds\");\r\n\r\n\t\treturn Section(top, left, bottom, right);\r\n\t}\r\n\r\n\tfunction isIntersecting(uint256 tokenId1, uint256 tokenId2) internal pure returns (bool) {\r\n\t\tSection memory Section1 = breakTokenId(tokenId1);\r\n\t\tSection memory Section2 = breakTokenId(tokenId2);\r\n\t\treturn !(Section2.left > Section1.right || Section2.right < Section1.left || Section2.top > Section1.bottom || Section2.bottom < Section1.top);\r\n\t}\r\n\r\n\tfunction safeMint(address to, uint256 tokenId) public {\r\n\t\tuint256 sLength = usedTokenId.length;\r\n\t\tfor (uint256 i = 0; i < sLength; i++) {\r\n\t\t\tif (isIntersecting(tokenId, usedTokenId[i])) {\r\n\t\t\t\trevert(\"Area is occupied\");\r\n\t\t\t}\r\n\t\t}\r\n\r\n\t\tusedTokenId.push(tokenId);\r\n\t\t_safeMint(to, tokenId);\r\n\t}\r\n\r\n\tfunction isSubTokenOf(uint256 tokenId, uint256[] memory subTokens) internal pure returns (bool) {\r\n\t\tSection memory section = breakTokenId(tokenId);\r\n\t\tSection memory mSection = Section(9999, 9999, 0, 0);\r\n\t\tuint256 area = (section.bottom - section.top + 1) * (section.right - section.left + 1);\r\n\t\tuint256 newArea;\r\n\r\n\t\tfor (uint256 i = 0; i < subTokens.length; i++) {\r\n\t\t\tSection memory cSection = breakTokenId(subTokens[i]);\r\n\t\t\tmSection.top = mSection.top < cSection.top ? mSection.top : cSection.top;\r\n\t\t\tmSection.left = mSection.left < cSection.left ? mSection.left : cSection.left;\r\n\t\t\tmSection.bottom = mSection.bottom > cSection.bottom ? mSection.bottom : cSection.bottom;\r\n\t\t\tmSection.right = mSection.right > cSection.right ? mSection.right : cSection.right;\r\n\t\t\tnewArea = newArea + ((cSection.bottom - cSection.top + 1) * (cSection.right - cSection.left + 1));\r\n\t\t}\r\n\r\n\t\treturn newArea == area && mSection.top == section.top && mSection.left == section.left && mSection.bottom == section.bottom && mSection.right == section.right;\r\n\t}\r\n\r\n\tfunction breakTokens(uint256 tokenId, uint256[] memory newTokens) public {\r\n\t\trequire(_isApprovedOrOwner(_msgSender(), tokenId), \"not owner\");\r\n\t\trequire(isSubTokenOf(tokenId, newTokens), \"Provided break is not fitting\");\r\n\r\n\t\tburn(tokenId);\r\n\r\n\t\tfor (uint256 i = 0; i < newTokens.length; i++) {\r\n\t\t\t_safeMint(_msgSender(), newTokens[i]);\r\n\t\t}\r\n\t}\r\n\r\n\tfunction mergeTokens(uint256 tokenId, uint256[] memory oldTokens) public {\r\n\t\tfor (uint256 i = 0; i < oldTokens.length; i++) {\r\n\t\t\trequire(_isApprovedOrOwner(_msgSender(), oldTokens[i]), \"not owner\");\r\n\t\t}\r\n\r\n\t\trequire(isSubTokenOf(tokenId, oldTokens), \"Provided merge is not fitting\");\r\n\r\n\t\tfor (uint256 i = 0; i < oldTokens.length; i++) {\r\n\t\t\tburn(oldTokens[i]);\r\n\t\t}\r\n\r\n\t\t_safeMint(_msgSender(), tokenId);\r\n\t}\r\n\r\n\tfunction testMint(uint256 js) public {\r\n\t\tuint256 res = (dimensions * dimensions) / (js * js);\r\n\t\tuint256[] memory usedTokenIdd = new uint256[](res);\r\n\t\tuint256 c;\r\n\t\tfor (uint256 i = 0; i < dimensions; i += js) {\r\n\t\t\tfor (uint256 j = 0; j < dimensions; j += js) {\r\n\t\t\t\t// safeMint(msg.sender, (i * dimensions + j) * dimensions * dimensions + (i + 49) * dimensions + (j + 49));\r\n\t\t\t\tuint256 tokenId = (i * dimensions + j) * dimensions * dimensions + (i + 49) * dimensions + (j + 49);\r\n\t\t\t\t_safeMint(msg.sender, tokenId);\r\n\t\t\t\tusedTokenIdd[c++] = tokenId;\r\n\t\t\t}\r\n\t\t}\r\n\r\n\t\tusedTokenId = usedTokenIdd;\r\n\t}\r\n}\r\n",
  "sourcePath": "D:\\GitProjs\\RealPixestate\\contracts\\RealPixestateNoSpatial.sol",
  "compiler": {
    "name": "solc",
    "version": "0.8.9+commit.e5eed63a.Emscripten.clang"
  },
  "schemaVersion": "3.4.3",
  "updatedAt": "2021-10-12T08:19:03.646Z",
  "networkType": "ethereum",
  "devdoc": {
    "kind": "dev",
    "methods": {
      "approve(address,uint256)": {
        "details": "See {IERC721-approve}."
      },
      "balanceOf(address)": {
        "details": "See {IERC721-balanceOf}."
      },
      "burn(uint256)": {
        "details": "Burns `tokenId`. See {ERC721-_burn}. Requirements: - The caller must own `tokenId` or be an approved operator."
      },
      "getApproved(uint256)": {
        "details": "See {IERC721-getApproved}."
      },
      "isApprovedForAll(address,address)": {
        "details": "See {IERC721-isApprovedForAll}."
      },
      "name()": {
        "details": "See {IERC721Metadata-name}."
      },
      "owner()": {
        "details": "Returns the address of the current owner."
      },
      "ownerOf(uint256)": {
        "details": "See {IERC721-ownerOf}."
      },
      "renounceOwnership()": {
        "details": "Leaves the contract without owner. It will not be possible to call `onlyOwner` functions anymore. Can only be called by the current owner. NOTE: Renouncing ownership will leave the contract without an owner, thereby removing any functionality that is only available to the owner."
      },
      "safeTransferFrom(address,address,uint256)": {
        "details": "See {IERC721-safeTransferFrom}."
      },
      "safeTransferFrom(address,address,uint256,bytes)": {
        "details": "See {IERC721-safeTransferFrom}."
      },
      "setApprovalForAll(address,bool)": {
        "details": "See {IERC721-setApprovalForAll}."
      },
      "supportsInterface(bytes4)": {
        "details": "See {IERC165-supportsInterface}."
      },
      "symbol()": {
        "details": "See {IERC721Metadata-symbol}."
      },
      "tokenURI(uint256)": {
        "details": "See {IERC721Metadata-tokenURI}."
      },
      "transferFrom(address,address,uint256)": {
        "details": "See {IERC721-transferFrom}."
      },
      "transferOwnership(address)": {
        "details": "Transfers ownership of the contract to a new account (`newOwner`). Can only be called by the current owner."
      }
    },
    "version": 1
  },
  "userdoc": {
    "kind": "user",
    "methods": {},
    "version": 1
  }
}